{
  "_format": "hh-sol-artifact-1",
  "contractName": "FixedDeposit",
  "sourceName": "contracts/FixedDeposit.sol",
  "abi": [
    {
      "inputs": [],
      "stateMutability": "payable",
      "type": "constructor"
    },
    {
      "anonymous": false,
      "inputs": [
        {
          "indexed": true,
          "internalType": "address",
          "name": "user",
          "type": "address"
        },
        {
          "indexed": true,
          "internalType": "uint256",
          "name": "depositId",
          "type": "uint256"
        },
        {
          "indexed": false,
          "internalType": "uint256",
          "name": "principal",
          "type": "uint256"
        },
        {
          "indexed": false,
          "internalType": "uint256",
          "name": "lockDuration",
          "type": "uint256"
        },
        {
          "indexed": false,
          "internalType": "uint256",
          "name": "aprBps",
          "type": "uint256"
        },
        {
          "indexed": false,
          "internalType": "uint256",
          "name": "maturityTime",
          "type": "uint256"
        }
      ],
      "name": "Deposited",
      "type": "event"
    },
    {
      "anonymous": false,
      "inputs": [
        {
          "indexed": true,
          "internalType": "address",
          "name": "funder",
          "type": "address"
        },
        {
          "indexed": false,
          "internalType": "uint256",
          "name": "amount",
          "type": "uint256"
        }
      ],
      "name": "ReserveFunded",
      "type": "event"
    },
    {
      "anonymous": false,
      "inputs": [
        {
          "indexed": true,
          "internalType": "address",
          "name": "user",
          "type": "address"
        },
        {
          "indexed": true,
          "internalType": "uint256",
          "name": "depositId",
          "type": "uint256"
        },
        {
          "indexed": false,
          "internalType": "uint256",
          "name": "principal",
          "type": "uint256"
        },
        {
          "indexed": false,
          "internalType": "uint256",
          "name": "interest",
          "type": "uint256"
        },
        {
          "indexed": false,
          "internalType": "uint256",
          "name": "total",
          "type": "uint256"
        }
      ],
      "name": "Withdrawn",
      "type": "event"
    },
    {
      "inputs": [],
      "name": "APR_180_DAYS",
      "outputs": [
        {
          "internalType": "uint256",
          "name": "",
          "type": "uint256"
        }
      ],
      "stateMutability": "view",
      "type": "function"
    },
    {
      "inputs": [],
      "name": "APR_30_DAYS",
      "outputs": [
        {
          "internalType": "uint256",
          "name": "",
          "type": "uint256"
        }
      ],
      "stateMutability": "view",
      "type": "function"
    },
    {
      "inputs": [],
      "name": "APR_90_DAYS",
      "outputs": [
        {
          "internalType": "uint256",
          "name": "",
          "type": "uint256"
        }
      ],
      "stateMutability": "view",
      "type": "function"
    },
    {
      "inputs": [],
      "name": "MIN_DEPOSIT",
      "outputs": [
        {
          "internalType": "uint256",
          "name": "",
          "type": "uint256"
        }
      ],
      "stateMutability": "view",
      "type": "function"
    },
    {
      "inputs": [],
      "name": "PERIOD_180_DAYS",
      "outputs": [
        {
          "internalType": "uint256",
          "name": "",
          "type": "uint256"
        }
      ],
      "stateMutability": "view",
      "type": "function"
    },
    {
      "inputs": [],
      "name": "PERIOD_30_DAYS",
      "outputs": [
        {
          "internalType": "uint256",
          "name": "",
          "type": "uint256"
        }
      ],
      "stateMutability": "view",
      "type": "function"
    },
    {
      "inputs": [],
      "name": "PERIOD_90_DAYS",
      "outputs": [
        {
          "internalType": "uint256",
          "name": "",
          "type": "uint256"
        }
      ],
      "stateMutability": "view",
      "type": "function"
    },
    {
      "inputs": [],
      "name": "SECONDS_PER_YEAR",
      "outputs": [
        {
          "internalType": "uint256",
          "name": "",
          "type": "uint256"
        }
      ],
      "stateMutability": "view",
      "type": "function"
    },
    {
      "inputs": [
        {
          "internalType": "uint256",
          "name": "principal",
          "type": "uint256"
        },
        {
          "internalType": "uint256",
          "name": "aprBps",
          "type": "uint256"
        },
        {
          "internalType": "uint256",
          "name": "lockDuration",
          "type": "uint256"
        }
      ],
      "name": "calculateInterest",
      "outputs": [
        {
          "internalType": "uint256",
          "name": "",
          "type": "uint256"
        }
      ],
      "stateMutability": "pure",
      "type": "function"
    },
    {
      "inputs": [
        {
          "internalType": "uint256",
          "name": "lockDuration",
          "type": "uint256"
        }
      ],
      "name": "deposit",
      "outputs": [],
      "stateMutability": "payable",
      "type": "function"
    },
    {
      "inputs": [],
      "name": "fundReserve",
      "outputs": [],
      "stateMutability": "payable",
      "type": "function"
    },
    {
      "inputs": [
        {
          "internalType": "uint256",
          "name": "depositId",
          "type": "uint256"
        }
      ],
      "name": "getDeposit",
      "outputs": [
        {
          "internalType": "address",
          "name": "depositor",
          "type": "address"
        },
        {
          "internalType": "uint256",
          "name": "principal",
          "type": "uint256"
        },
        {
          "internalType": "uint256",
          "name": "startTime",
          "type": "uint256"
        },
        {
          "internalType": "uint256",
          "name": "maturityTime",
          "type": "uint256"
        },
        {
          "internalType": "uint256",
          "name": "aprBps",
          "type": "uint256"
        },
        {
          "internalType": "uint256",
          "name": "lockDuration",
          "type": "uint256"
        },
        {
          "internalType": "bool",
          "name": "withdrawn",
          "type": "bool"
        },
        {
          "internalType": "uint256",
          "name": "expectedInterest",
          "type": "uint256"
        },
        {
          "internalType": "uint256",
          "name": "expectedTotal",
          "type": "uint256"
        }
      ],
      "stateMutability": "view",
      "type": "function"
    },
    {
      "inputs": [
        {
          "internalType": "address",
          "name": "user",
          "type": "address"
        }
      ],
      "name": "getUserDepositIds",
      "outputs": [
        {
          "internalType": "uint256[]",
          "name": "",
          "type": "uint256[]"
        }
      ],
      "stateMutability": "view",
      "type": "function"
    },
    {
      "inputs": [
        {
          "internalType": "uint256",
          "name": "depositId",
          "type": "uint256"
        }
      ],
      "name": "isMatured",
      "outputs": [
        {
          "internalType": "bool",
          "name": "",
          "type": "bool"
        }
      ],
      "stateMutability": "view",
      "type": "function"
    },
    {
      "inputs": [],
      "name": "owner",
      "outputs": [
        {
          "internalType": "address",
          "name": "",
          "type": "address"
        }
      ],
      "stateMutability": "view",
      "type": "function"
    },
    {
      "inputs": [],
      "name": "reserveBalance",
      "outputs": [
        {
          "internalType": "uint256",
          "name": "",
          "type": "uint256"
        }
      ],
      "stateMutability": "view",
      "type": "function"
    },
    {
      "inputs": [],
      "name": "totalDeposits",
      "outputs": [
        {
          "internalType": "uint256",
          "name": "",
          "type": "uint256"
        }
      ],
      "stateMutability": "view",
      "type": "function"
    },
    {
      "inputs": [
        {
          "internalType": "uint256",
          "name": "depositId",
          "type": "uint256"
        }
      ],
      "name": "withdraw",
      "outputs": [],
      "stateMutability": "nonpayable",
      "type": "function"
    },
    {
      "stateMutability": "payable",
      "type": "receive"
    }
  ],
  "bytecode": "0x60a060405233608052608051610d9f6100316000396000818161011d015281816102cb01526107bd0152610d9f6000f3fe60806040526004361061010d5760003560e01c8063a10954fe11610095578063e1e158a511610064578063e1e158a5146103de578063e628c3ea146103f9578063e6a69ab814610410578063e74eaf8014610428578063f0976a9a1461043e57600080fd5b8063a10954fe14610375578063b6b55f2514610388578063d4e4487d1461039b578063d6a54b95146103c857600080fd5b80636a2e0af3116100dc5780636a2e0af3146102855780636f9c3c8f1461029c5780637d882097146102a45780638da5cb5b146102b95780639f9fb9681461030557600080fd5b806305e1bd8c146101d75780632e1a7d4d1461020a578063618c94341461022c578063631089901461024257600080fd5b366101d257336001600160a01b037f0000000000000000000000000000000000000000000000000000000000000000161461019b5760405162461bcd60e51b815260206004820152602360248201527f46697865644465706f7369743a206f6e6c79206f776e65722063616e20746f7060448201526202d75760ec1b60648201526084015b60405180910390fd5b60405134815233907fb52b99b9e83551fcbd069b559cc3e823e2a1a3bad8ece46561ea77524394c8509060200160405180910390a2005b600080fd5b3480156101e357600080fd5b506101f76101f2366004610c2f565b610455565b6040519081526020015b60405180910390f35b34801561021657600080fd5b5061022a610225366004610c5b565b61048e565b005b34801561023857600080fd5b506101f761032081565b34801561024e57600080fd5b5061027561025d366004610c5b565b60009081526001602052604090206002015442101590565b6040519015158152602001610201565b34801561029157600080fd5b506101f762ed4e0081565b61022a6107b2565b3480156102b057600080fd5b506004546101f7565b3480156102c557600080fd5b506102ed7f000000000000000000000000000000000000000000000000000000000000000081565b6040516001600160a01b039091168152602001610201565b34801561031157600080fd5b50610325610320366004610c5b565b6108bb565b604080516001600160a01b03909a168a5260208a0198909852968801959095526060870193909352608086019190915260a0850152151560c084015260e083015261010082015261012001610201565b34801561038157600080fd5b50476101f7565b61022a610396366004610c5b565b610931565b3480156103a757600080fd5b506103bb6103b6366004610c74565b610b34565b6040516102019190610ca4565b3480156103d457600080fd5b506101f76104b081565b3480156103ea57600080fd5b506101f7662386f26fc1000081565b34801561040557600080fd5b506101f762278d0081565b34801561041c57600080fd5b506101f76301e1338081565b34801561043457600080fd5b506101f76101f481565b34801561044a57600080fd5b506101f76276a70081565b60006104676127106301e13380610cfe565b826104728587610cfe565b61047c9190610cfe565b6104869190610d1b565b949350505050565b60005460ff16156104e15760405162461bcd60e51b815260206004820152601c60248201527f46697865644465706f7369743a207265656e7472616e742063616c6c000000006044820152606401610192565b6000805460ff19166001178155818152600360205260409020546001600160a01b031633146105525760405162461bcd60e51b815260206004820152601f60248201527f46697865644465706f7369743a206e6f74206465706f736974206f776e6572006044820152606401610192565b6000818152600160205260409020600581015460ff16156105b55760405162461bcd60e51b815260206004820152601f60248201527f46697865644465706f7369743a20616c72656164792077697468647261776e006044820152606401610192565b80600201544210156106135760405162461bcd60e51b815260206004820152602160248201527f46697865644465706f7369743a206465706f736974206e6f74206d61747572656044820152601960fa1b6064820152608401610192565b600061062c826000015483600301548460040154610455565b905060008183600001546106409190610d3d565b9050804710156106aa5760405162461bcd60e51b815260206004820152602f60248201527f46697865644465706f7369743a20696e73756666696369656e7420726573657260448201526e1d9948199bdc881a5b9d195c995cdd608a1b6064820152608401610192565b60058301805460ff19166001179055825460408051918252602082018490528101829052849033907f94ffd6b85c71b847775c89ef6496b93cee961bdc6ff827fd117f174f06f745ae9060600160405180910390a3604051600090339083908381818185875af1925050503d8060008114610741576040519150601f19603f3d011682016040523d82523d6000602084013e610746565b606091505b50509050806107a15760405162461bcd60e51b815260206004820152602160248201527f46697865644465706f7369743a20455448207472616e73666572206661696c656044820152601960fa1b6064820152608401610192565b50506000805460ff19169055505050565b336001600160a01b037f000000000000000000000000000000000000000000000000000000000000000016146108345760405162461bcd60e51b815260206004820152602160248201527f46697865644465706f7369743a2063616c6c6572206973206e6f74206f776e656044820152603960f91b6064820152608401610192565b600034116108845760405162461bcd60e51b815260206004820152601b60248201527f46697865644465706f7369743a206d7573742073656e642045544800000000006044820152606401610192565b60405134815233907fb52b99b9e83551fcbd069b559cc3e823e2a1a3bad8ece46561ea77524394c8509060200160405180910390a2565b600081815260016020818152604080842060039283905290842054815493820154600283015493830154600484015460058501546001600160a01b03909416979295949193909260ff909116918190610915898787610455565b9250610921838a610d3d565b9150509193959799909294969850565b60005460ff16156109845760405162461bcd60e51b815260206004820152601c60248201527f46697865644465706f7369743a207265656e7472616e742063616c6c000000006044820152606401610192565b6000805460ff19166001179055662386f26fc100003410156109f45760405162461bcd60e51b815260206004820152602360248201527f46697865644465706f7369743a2062656c6f77206d696e696d756d206465706f6044820152621cda5d60ea1b6064820152608401610192565b60006109ff82610ba0565b600480549192506000919082610a1483610d50565b9091555090506000610a268442610d3d565b6040805160c0810182523480825242602080840191825283850186815260608086018b815260808088018e8152600060a08a018181528e825260018089528c83209b518c5598518b8a015595516002808c019190915593516003808c0191909155915160048b015594516005909901805460ff191699151599909917909855338085529185528884208054968701815584528484209095018b90558a83529583529086902080546001600160a01b0319168617905585519384529083018a9052938201889052928101849052929350849290917f0a5c854539f6e93fcd4a8397bfae8bdb751b4e819840f1c8681e6ad7ff19c5b5910160405180910390a350506000805460ff191690555050565b6001600160a01b038116600090815260026020908152604091829020805483518184028101840190945280845260609392830182828015610b9457602002820191906000526020600020905b815481526020019060010190808311610b80575b50505050509050919050565b600062278d008203610bb557506101f4919050565b6276a7008203610bc85750610320919050565b62ed4e008203610bdb57506104b0919050565b60405162461bcd60e51b815260206004820152602360248201527f46697865644465706f7369743a20696e76616c6964206c6f636b20647572617460448201526234b7b760e91b6064820152608401610192565b600080600060608486031215610c4457600080fd5b505081359360208301359350604090920135919050565b600060208284031215610c6d57600080fd5b5035919050565b600060208284031215610c8657600080fd5b81356001600160a01b0381168114610c9d57600080fd5b9392505050565b6020808252825182820181905260009190848201906040850190845b81811015610cdc57835183529284019291840191600101610cc0565b50909695505050505050565b634e487b7160e01b600052601160045260246000fd5b8082028115828204841417610d1557610d15610ce8565b92915050565b600082610d3857634e487b7160e01b600052601260045260246000fd5b500490565b80820180821115610d1557610d15610ce8565b600060018201610d6257610d62610ce8565b506001019056fea2646970667358221220ee6927e1cdc83c2e2b1b0911e77e5cc1bbe5d2199a2e854d8d4eb338fdce7b9964736f6c63430008180033",
  "linkReferences": {},
  "deployedLinkReferences": {}
}