{
  "_format": "hh-sol-artifact-1",
  "contractName": "DepositManager",
  "sourceName": "contracts/DepositManager.sol",
  "abi": [
    {
      "anonymous": false,
      "inputs": [
        {
          "indexed": false,
          "internalType": "address",
          "name": "previousAdmin",
          "type": "address"
        },
        {
          "indexed": false,
          "internalType": "address",
          "name": "newAdmin",
          "type": "address"
        }
      ],
      "name": "AdminChanged",
      "type": "event"
    },
    {
      "anonymous": false,
      "inputs": [
        {
          "indexed": true,
          "internalType": "address",
          "name": "beacon",
          "type": "address"
        }
      ],
      "name": "BeaconUpgraded",
      "type": "event"
    },
    {
      "anonymous": false,
      "inputs": [
        {
          "indexed": true,
          "internalType": "address",
          "name": "owner",
          "type": "address"
        },
        {
          "indexed": true,
          "internalType": "uint256",
          "name": "tokenId",
          "type": "uint256"
        },
        {
          "indexed": true,
          "internalType": "address",
          "name": "asset",
          "type": "address"
        },
        {
          "indexed": false,
          "internalType": "uint256",
          "name": "principal",
          "type": "uint256"
        },
        {
          "indexed": false,
          "internalType": "uint256",
          "name": "aprBps",
          "type": "uint256"
        },
        {
          "indexed": false,
          "internalType": "uint256",
          "name": "lockDuration",
          "type": "uint256"
        },
        {
          "indexed": false,
          "internalType": "uint256",
          "name": "maturityTime",
          "type": "uint256"
        }
      ],
      "name": "DepositCreated",
      "type": "event"
    },
    {
      "anonymous": false,
      "inputs": [
        {
          "indexed": true,
          "internalType": "address",
          "name": "previousDepositNFT",
          "type": "address"
        },
        {
          "indexed": true,
          "internalType": "address",
          "name": "newDepositNFT",
          "type": "address"
        }
      ],
      "name": "DepositNFTUpdated",
      "type": "event"
    },
    {
      "anonymous": false,
      "inputs": [
        {
          "indexed": true,
          "internalType": "address",
          "name": "owner",
          "type": "address"
        },
        {
          "indexed": true,
          "internalType": "uint256",
          "name": "tokenId",
          "type": "uint256"
        },
        {
          "indexed": true,
          "internalType": "address",
          "name": "asset",
          "type": "address"
        },
        {
          "indexed": false,
          "internalType": "uint256",
          "name": "principal",
          "type": "uint256"
        },
        {
          "indexed": false,
          "internalType": "uint256",
          "name": "interest",
          "type": "uint256"
        },
        {
          "indexed": false,
          "internalType": "uint256",
          "name": "payout",
          "type": "uint256"
        },
        {
          "indexed": false,
          "internalType": "uint256",
          "name": "penalty",
          "type": "uint256"
        },
        {
          "indexed": false,
          "internalType": "bool",
          "name": "matured",
          "type": "bool"
        }
      ],
      "name": "DepositRedeemed",
      "type": "event"
    },
    {
      "anonymous": false,
      "inputs": [
        {
          "indexed": true,
          "internalType": "address",
          "name": "asset",
          "type": "address"
        },
        {
          "indexed": false,
          "internalType": "uint256",
          "name": "penaltyBps",
          "type": "uint256"
        }
      ],
      "name": "EarlyPenaltyUpdated",
      "type": "event"
    },
    {
      "anonymous": false,
      "inputs": [
        {
          "indexed": false,
          "internalType": "uint8",
          "name": "version",
          "type": "uint8"
        }
      ],
      "name": "Initialized",
      "type": "event"
    },
    {
      "anonymous": false,
      "inputs": [
        {
          "indexed": true,
          "internalType": "address",
          "name": "previousModel",
          "type": "address"
        },
        {
          "indexed": true,
          "internalType": "address",
          "name": "newModel",
          "type": "address"
        }
      ],
      "name": "InterestModelUpdated",
      "type": "event"
    },
    {
      "anonymous": false,
      "inputs": [
        {
          "indexed": true,
          "internalType": "address",
          "name": "asset",
          "type": "address"
        },
        {
          "indexed": false,
          "internalType": "uint256",
          "name": "amount",
          "type": "uint256"
        }
      ],
      "name": "MinDepositUpdated",
      "type": "event"
    },
    {
      "anonymous": false,
      "inputs": [
        {
          "indexed": false,
          "internalType": "address",
          "name": "account",
          "type": "address"
        }
      ],
      "name": "Paused",
      "type": "event"
    },
    {
      "anonymous": false,
      "inputs": [
        {
          "indexed": true,
          "internalType": "address",
          "name": "previousTreasury",
          "type": "address"
        },
        {
          "indexed": true,
          "internalType": "address",
          "name": "newTreasury",
          "type": "address"
        }
      ],
      "name": "TreasuryUpdated",
      "type": "event"
    },
    {
      "anonymous": false,
      "inputs": [
        {
          "indexed": false,
          "internalType": "address",
          "name": "account",
          "type": "address"
        }
      ],
      "name": "Unpaused",
      "type": "event"
    },
    {
      "anonymous": false,
      "inputs": [
        {
          "indexed": true,
          "internalType": "address",
          "name": "implementation",
          "type": "address"
        }
      ],
      "name": "Upgraded",
      "type": "event"
    },
    {
      "anonymous": false,
      "inputs": [
        {
          "indexed": true,
          "internalType": "address",
          "name": "asset",
          "type": "address"
        },
        {
          "indexed": false,
          "internalType": "uint256",
          "name": "limitBps",
          "type": "uint256"
        },
        {
          "indexed": false,
          "internalType": "uint256",
          "name": "windowDuration",
          "type": "uint256"
        }
      ],
      "name": "WithdrawalLimitUpdated",
      "type": "event"
    },
    {
      "inputs": [],
      "name": "BASIS_POINTS",
      "outputs": [
        {
          "internalType": "uint256",
          "name": "",
          "type": "uint256"
        }
      ],
      "stateMutability": "view",
      "type": "function"
    },
    {
      "inputs": [],
      "name": "accessController",
      "outputs": [
        {
          "internalType": "contract AccessController",
          "name": "",
          "type": "address"
        }
      ],
      "stateMutability": "view",
      "type": "function"
    },
    {
      "inputs": [
        {
          "internalType": "uint256",
          "name": "lockDuration",
          "type": "uint256"
        }
      ],
      "name": "depositETH",
      "outputs": [
        {
          "internalType": "uint256",
          "name": "tokenId",
          "type": "uint256"
        }
      ],
      "stateMutability": "payable",
      "type": "function"
    },
    {
      "inputs": [],
      "name": "depositNFT",
      "outputs": [
        {
          "internalType": "contract IDepositNFT",
          "name": "",
          "type": "address"
        }
      ],
      "stateMutability": "view",
      "type": "function"
    },
    {
      "inputs": [
        {
          "internalType": "address",
          "name": "asset",
          "type": "address"
        },
        {
          "internalType": "uint256",
          "name": "amount",
          "type": "uint256"
        },
        {
          "internalType": "uint256",
          "name": "lockDuration",
          "type": "uint256"
        }
      ],
      "name": "depositToken",
      "outputs": [
        {
          "internalType": "uint256",
          "name": "tokenId",
          "type": "uint256"
        }
      ],
      "stateMutability": "nonpayable",
      "type": "function"
    },
    {
      "inputs": [
        {
          "internalType": "uint256",
          "name": "",
          "type": "uint256"
        }
      ],
      "name": "deposits",
      "outputs": [
        {
          "internalType": "address",
          "name": "asset",
          "type": "address"
        },
        {
          "internalType": "uint256",
          "name": "principal",
          "type": "uint256"
        },
        {
          "internalType": "uint256",
          "name": "startTime",
          "type": "uint256"
        },
        {
          "internalType": "uint256",
          "name": "maturityTime",
          "type": "uint256"
        },
        {
          "internalType": "uint256",
          "name": "aprBps",
          "type": "uint256"
        },
        {
          "internalType": "uint256",
          "name": "lockDuration",
          "type": "uint256"
        },
        {
          "internalType": "bool",
          "name": "withdrawn",
          "type": "bool"
        }
      ],
      "stateMutability": "view",
      "type": "function"
    },
    {
      "inputs": [
        {
          "internalType": "address",
          "name": "",
          "type": "address"
        }
      ],
      "name": "earlyWithdrawalPenaltyBps",
      "outputs": [
        {
          "internalType": "uint256",
          "name": "",
          "type": "uint256"
        }
      ],
      "stateMutability": "view",
      "type": "function"
    },
    {
      "inputs": [
        {
          "internalType": "uint256",
          "name": "tokenId",
          "type": "uint256"
        }
      ],
      "name": "expectedPayout",
      "outputs": [
        {
          "internalType": "uint256",
          "name": "principal",
          "type": "uint256"
        },
        {
          "internalType": "uint256",
          "name": "interest",
          "type": "uint256"
        },
        {
          "internalType": "uint256",
          "name": "maturityPayout",
          "type": "uint256"
        }
      ],
      "stateMutability": "view",
      "type": "function"
    },
    {
      "inputs": [
        {
          "internalType": "uint256",
          "name": "tokenId",
          "type": "uint256"
        }
      ],
      "name": "getAccruedInterest",
      "outputs": [
        {
          "internalType": "uint256",
          "name": "interest",
          "type": "uint256"
        }
      ],
      "stateMutability": "view",
      "type": "function"
    },
    {
      "inputs": [
        {
          "internalType": "uint256",
          "name": "tokenId",
          "type": "uint256"
        }
      ],
      "name": "getClaimableAmount",
      "outputs": [
        {
          "internalType": "uint256",
          "name": "claimable",
          "type": "uint256"
        }
      ],
      "stateMutability": "view",
      "type": "function"
    },
    {
      "inputs": [
        {
          "internalType": "uint256",
          "name": "tokenId",
          "type": "uint256"
        }
      ],
      "name": "getTimeUntilMaturity",
      "outputs": [
        {
          "internalType": "uint256",
          "name": "timeRemaining",
          "type": "uint256"
        }
      ],
      "stateMutability": "view",
      "type": "function"
    },
    {
      "inputs": [
        {
          "internalType": "address",
          "name": "user",
          "type": "address"
        }
      ],
      "name": "getUserActivePositions",
      "outputs": [
        {
          "components": [
            {
              "internalType": "uint256",
              "name": "tokenId",
              "type": "uint256"
            },
            {
              "internalType": "address",
              "name": "asset",
              "type": "address"
            },
            {
              "internalType": "uint256",
              "name": "principal",
              "type": "uint256"
            },
            {
              "internalType": "uint256",
              "name": "accruedInterest",
              "type": "uint256"
            },
            {
              "internalType": "uint256",
              "name": "expectedMaturityAmount",
              "type": "uint256"
            },
            {
              "internalType": "uint256",
              "name": "maturityTime",
              "type": "uint256"
            },
            {
              "internalType": "bool",
              "name": "matured",
              "type": "bool"
            },
            {
              "internalType": "bool",
              "name": "withdrawn",
              "type": "bool"
            },
            {
              "internalType": "uint256",
              "name": "claimableAmount",
              "type": "uint256"
            }
          ],
          "internalType": "struct DepositManager.PortfolioPosition[]",
          "name": "",
          "type": "tuple[]"
        }
      ],
      "stateMutability": "view",
      "type": "function"
    },
    {
      "inputs": [
        {
          "internalType": "address",
          "name": "user",
          "type": "address"
        }
      ],
      "name": "getUserDepositHistory",
      "outputs": [
        {
          "components": [
            {
              "internalType": "uint256",
              "name": "tokenId",
              "type": "uint256"
            },
            {
              "internalType": "address",
              "name": "asset",
              "type": "address"
            },
            {
              "internalType": "uint256",
              "name": "principal",
              "type": "uint256"
            },
            {
              "internalType": "uint256",
              "name": "accruedInterest",
              "type": "uint256"
            },
            {
              "internalType": "uint256",
              "name": "expectedMaturityAmount",
              "type": "uint256"
            },
            {
              "internalType": "uint256",
              "name": "maturityTime",
              "type": "uint256"
            },
            {
              "internalType": "bool",
              "name": "matured",
              "type": "bool"
            },
            {
              "internalType": "bool",
              "name": "withdrawn",
              "type": "bool"
            },
            {
              "internalType": "uint256",
              "name": "claimableAmount",
              "type": "uint256"
            }
          ],
          "internalType": "struct DepositManager.PortfolioPosition[]",
          "name": "",
          "type": "tuple[]"
        }
      ],
      "stateMutability": "view",
      "type": "function"
    },
    {
      "inputs": [
        {
          "internalType": "address",
          "name": "user",
          "type": "address"
        }
      ],
      "name": "getUserPortfolioSummary",
      "outputs": [
        {
          "components": [
            {
              "internalType": "uint256",
              "name": "totalActivePositions",
              "type": "uint256"
            },
            {
              "internalType": "uint256",
              "name": "totalPrincipalLocked",
              "type": "uint256"
            },
            {
              "internalType": "uint256",
              "name": "totalAccruedInterest",
              "type": "uint256"
            },
            {
              "internalType": "uint256",
              "name": "totalClaimable",
              "type": "uint256"
            }
          ],
          "internalType": "struct DepositManager.PortfolioSummary",
          "name": "summary",
          "type": "tuple"
        }
      ],
      "stateMutability": "view",
      "type": "function"
    },
    {
      "inputs": [
        {
          "internalType": "address",
          "name": "accessController_",
          "type": "address"
        },
        {
          "internalType": "address",
          "name": "depositNFT_",
          "type": "address"
        },
        {
          "internalType": "address",
          "name": "interestModel_",
          "type": "address"
        },
        {
          "internalType": "address",
          "name": "treasury_",
          "type": "address"
        }
      ],
      "name": "initialize",
      "outputs": [],
      "stateMutability": "nonpayable",
      "type": "function"
    },
    {
      "inputs": [],
      "name": "interestModel",
      "outputs": [
        {
          "internalType": "contract IInterestModel",
          "name": "",
          "type": "address"
        }
      ],
      "stateMutability": "view",
      "type": "function"
    },
    {
      "inputs": [
        {
          "internalType": "address",
          "name": "",
          "type": "address"
        }
      ],
      "name": "minDeposit",
      "outputs": [
        {
          "internalType": "uint256",
          "name": "",
          "type": "uint256"
        }
      ],
      "stateMutability": "view",
      "type": "function"
    },
    {
      "inputs": [],
      "name": "pause",
      "outputs": [],
      "stateMutability": "nonpayable",
      "type": "function"
    },
    {
      "inputs": [],
      "name": "paused",
      "outputs": [
        {
          "internalType": "bool",
          "name": "",
          "type": "bool"
        }
      ],
      "stateMutability": "view",
      "type": "function"
    },
    {
      "inputs": [],
      "name": "proxiableUUID",
      "outputs": [
        {
          "internalType": "bytes32",
          "name": "",
          "type": "bytes32"
        }
      ],
      "stateMutability": "view",
      "type": "function"
    },
    {
      "inputs": [
        {
          "internalType": "uint256",
          "name": "tokenId",
          "type": "uint256"
        }
      ],
      "name": "redeem",
      "outputs": [],
      "stateMutability": "nonpayable",
      "type": "function"
    },
    {
      "inputs": [
        {
          "internalType": "address",
          "name": "newDepositNFT",
          "type": "address"
        }
      ],
      "name": "setDepositNFT",
      "outputs": [],
      "stateMutability": "nonpayable",
      "type": "function"
    },
    {
      "inputs": [
        {
          "internalType": "address",
          "name": "asset",
          "type": "address"
        },
        {
          "internalType": "uint256",
          "name": "penaltyBps",
          "type": "uint256"
        }
      ],
      "name": "setEarlyWithdrawalPenalty",
      "outputs": [],
      "stateMutability": "nonpayable",
      "type": "function"
    },
    {
      "inputs": [
        {
          "internalType": "address",
          "name": "newModel",
          "type": "address"
        }
      ],
      "name": "setInterestModel",
      "outputs": [],
      "stateMutability": "nonpayable",
      "type": "function"
    },
    {
      "inputs": [
        {
          "internalType": "address",
          "name": "asset",
          "type": "address"
        },
        {
          "internalType": "uint256",
          "name": "amount",
          "type": "uint256"
        }
      ],
      "name": "setMinDeposit",
      "outputs": [],
      "stateMutability": "nonpayable",
      "type": "function"
    },
    {
      "inputs": [
        {
          "internalType": "address",
          "name": "newTreasury",
          "type": "address"
        }
      ],
      "name": "setTreasury",
      "outputs": [],
      "stateMutability": "nonpayable",
      "type": "function"
    },
    {
      "inputs": [
        {
          "internalType": "address",
          "name": "asset",
          "type": "address"
        },
        {
          "internalType": "uint256",
          "name": "limitBps",
          "type": "uint256"
        },
        {
          "internalType": "uint256",
          "name": "windowDuration",
          "type": "uint256"
        }
      ],
      "name": "setWithdrawalLimit",
      "outputs": [],
      "stateMutability": "nonpayable",
      "type": "function"
    },
    {
      "inputs": [],
      "name": "treasury",
      "outputs": [
        {
          "internalType": "contract ITreasury",
          "name": "",
          "type": "address"
        }
      ],
      "stateMutability": "view",
      "type": "function"
    },
    {
      "inputs": [],
      "name": "unpause",
      "outputs": [],
      "stateMutability": "nonpayable",
      "type": "function"
    },
    {
      "inputs": [
        {
          "internalType": "address",
          "name": "newImplementation",
          "type": "address"
        }
      ],
      "name": "upgradeTo",
      "outputs": [],
      "stateMutability": "nonpayable",
      "type": "function"
    },
    {
      "inputs": [
        {
          "internalType": "address",
          "name": "newImplementation",
          "type": "address"
        },
        {
          "internalType": "bytes",
          "name": "data",
          "type": "bytes"
        }
      ],
      "name": "upgradeToAndCall",
      "outputs": [],
      "stateMutability": "payable",
      "type": "function"
    },
    {
      "inputs": [
        {
          "internalType": "address",
          "name": "",
          "type": "address"
        }
      ],
      "name": "withdrawalLimitBps",
      "outputs": [
        {
          "internalType": "uint256",
          "name": "",
          "type": "uint256"
        }
      ],
      "stateMutability": "view",
      "type": "function"
    },
    {
      "inputs": [],
      "name": "withdrawalWindowDuration",
      "outputs": [
        {
          "internalType": "uint256",
          "name": "",
          "type": "uint256"
        }
      ],
      "stateMutability": "view",
      "type": "function"
    },
    {
      "inputs": [
        {
          "internalType": "address",
          "name": "",
          "type": "address"
        }
      ],
      "name": "withdrawalWindows",
      "outputs": [
        {
          "internalType": "uint256",
          "name": "windowStart",
          "type": "uint256"
        },
        {
          "internalType": "uint256",
          "name": "withdrawnAmount",
          "type": "uint256"
        }
      ],
      "stateMutability": "view",
      "type": "function"
    }
  ],
  "bytecode": "0x60a06040523060805234801561001457600080fd5b5060805161401061004c60003960008181610e4e01528181610e97015281816114ef0152818161152f01526115c201526140106000f3fe6080604052600436106101f95760003560e01c80636e3f5d521161010d57806399c6d2de116100a0578063bc43cbaf1161006f578063bc43cbaf146106c4578063db006a75146106e4578063e1f1c4a714610704578063f0f442601461071a578063f8c8765e1461073a57600080fd5b806399c6d2de146105bd578063a1d87b60146105dd578063ac165d7a146105fd578063b02c43d01461061d57600080fd5b80638456cb59116100dc5780638456cb5914610548578063912d1a861461055d5780639339ea691461057d57806396ce36271461059d57600080fd5b80636e3f5d52146104835780637406260e146104a35780637976f446146104de5780637d8ca2421461052857600080fd5b80633f4ba83a116101905780635358fbda1161015f5780635358fbda146103c75780635c975abb146103da5780635ca1b67b146103fd57806361d027b31461042b57806367e3c4d41461046357600080fd5b80633f4ba83a1461036a5780634be3211f1461037f5780634f1ef2861461039f57806352d1902d146103b257600080fd5b80633659cfe6116101cc5780633659cfe6146102cc57806336ea216d146102ee578063371db5b01461031c5780633c29f8391461033c57600080fd5b8063031c27ed146101fe57806308bf1814146102345780632e946fe01461025457806333597465146102a7575b600080fd5b34801561020a57600080fd5b5061021e610219366004613a14565b61075a565b60405161022b9190613a31565b60405180910390f35b34801561024057600080fd5b5061021e61024f366004613a14565b610a16565b34801561026057600080fd5b5061027461026f366004613a14565b610c5e565b60405161022b91908151815260208083015190820152604080830151908201526060918201519181019190915260800190565b3480156102b357600080fd5b506102be6101055481565b60405190815260200161022b565b3480156102d857600080fd5b506102ec6102e7366004613a14565b610e44565b005b3480156102fa57600080fd5b506102be610309366004613a14565b6101026020526000908152604090205481565b34801561032857600080fd5b506102ec610337366004613a14565b610f2c565b34801561034857600080fd5b506102be610357366004613a14565b6101006020526000908152604090205481565b34801561037657600080fd5b506102ec6110d6565b34801561038b57600080fd5b506102ec61039a366004613ad6565b6112ea565b6102ec6103ad366004613b21565b6114e5565b3480156103be57600080fd5b506102be6115b5565b6102be6103d5366004613be5565b611668565b3480156103e657600080fd5b5060c95460ff16604051901515815260200161022b565b34801561040957600080fd5b506102be610418366004613a14565b6101016020526000908152604090205481565b34801561043757600080fd5b5060fe5461044b906001600160a01b031681565b6040516001600160a01b03909116815260200161022b565b34801561046f57600080fd5b5060fc5461044b906001600160a01b031681565b34801561048f57600080fd5b506102ec61049e366004613a14565b61179b565b3480156104af57600080fd5b506104c36104be366004613be5565b611915565b6040805193845260208401929092529082015260600161022b565b3480156104ea57600080fd5b506105136104f9366004613a14565b610103602052600090815260409020805460019091015482565b6040805192835260208301919091520161022b565b34801561053457600080fd5b506102be610543366004613be5565b6119a9565b34801561055457600080fd5b506102ec611b0a565b34801561056957600080fd5b506102ec610578366004613bfe565b611d1c565b34801561058957600080fd5b506102be610598366004613be5565b611e6e565b3480156105a957600080fd5b506102ec6105b8366004613bfe565b611ef0565b3480156105c957600080fd5b506102be6105d8366004613ad6565b612088565b3480156105e957600080fd5b506102be6105f8366004613be5565b61215d565b34801561060957600080fd5b5060fd5461044b906001600160a01b031681565b34801561062957600080fd5b50610683610638366004613be5565b60ff6020819052600091825260409091208054600182015460028301546003840154600485015460058601546006909601546001600160a01b03909516969395929491939092911687565b604080516001600160a01b0390981688526020880196909652948601939093526060850191909152608084015260a0830152151560c082015260e00161022b565b3480156106d057600080fd5b5060fb5461044b906001600160a01b031681565b3480156106f057600080fd5b506102ec6106ff366004613be5565b6121f1565b34801561071057600080fd5b506102be61271081565b34801561072657600080fd5b506102ec610735366004613a14565b6125f3565b34801561074657600080fd5b506102ec610755366004613c2a565b61279d565b6001600160a01b0381166000908152610104602090815260408083208054825181850281018501909352808352606094938301828280156107ba57602002820191906000526020600020905b8154815260200190600101908083116107a6575b505050505090506000805b825181101561081f5760ff60008483815181106107e4576107e4613c86565b60209081029190910181015182528101919091526040016000206006015460ff16610817578161081381613cb2565b9250505b6001016107c5565b5060008167ffffffffffffffff81111561083b5761083b613b0b565b60405190808252806020026020018201604052801561087457816020015b6108616139a6565b8152602001906001900390816108595790505b5090506000805b8451811015610a0b57600085828151811061089857610898613c86565b602090810291909101810151600081815260ff92839052604090206006015490925016610a0257600081815260ff60208181526040808420815160e08101835281546001600160a01b03168152600182015493810184905260028201549281019290925260038101546060830152600481015460808301819052600582015460a08401819052600690920154909416151560c083015290939261093b9291612aa9565b6060830151909150421015600081610954576000610964565b8284602001516109649190613ccb565b905060405180610120016040528086815260200185600001516001600160a01b03168152602001856020015181526020018481526020018486602001516109ab9190613ccb565b81526020018560600151815260200183151581526020018560c0015115158152602001828152508888815181106109e4576109e4613c86565b602002602001018190525086806109fa90613cb2565b975050505050505b5060010161087b565b509095945050505050565b6001600160a01b038116600090815261010460209081526040808320805482518185028101850190935280835260609493830182828015610a7657602002820191906000526020600020905b815481526020019060010190808311610a62575b505050505090506000815167ffffffffffffffff811115610a9957610a99613b0b565b604051908082528060200260200182016040528015610ad257816020015b610abf6139a6565b815260200190600190039081610ab75790505b50905060005b8251811015610c56576000838281518110610af557610af5613c86565b602090810291909101810151600081815260ff8084526040808320815160e08101835281546001600160a01b03168152600182015496810187905260028201549281019290925260038101546060830152600481015460808301819052600582015460a08401819052600690920154909316151560c0830152939550939192610b7f929190612aa9565b90506000826060015142101590506000818015610b9e57508360c00151155b610ba9576000610bb9565b828460200151610bb99190613ccb565b905060405180610120016040528086815260200185600001516001600160a01b0316815260200185602001518152602001848152602001848660200151610c009190613ccb565b81526020018560600151815260200183151581526020018560c001511515815260200182815250878781518110610c3957610c39613c86565b602002602001018190525050505050508080600101915050610ad8565b509392505050565b610c896040518060800160405280600081526020016000815260200160008152602001600081525090565b6001600160a01b03821660009081526101046020908152604080832080548251818502810185019093528083529192909190830182828015610cea57602002820191906000526020600020905b815481526020019060010190808311610cd6575b5050505050905060008060008060005b8551811015610e1b576000868281518110610d1757610d17613c86565b602090810291909101810151600081815260ff92839052604090206006015490925016610e1257600081815260ff60208181526040808420815160e08101835281546001600160a01b03168152600182015493810184905260028201549281019290925260038101546060830152600481015460808301819052600582015460a08401819052600690920154909416151560c0830152909392610dba9291612aa9565b9050816020015188610dcc9190613ccb565b9750610dd88188613ccb565b965081606001514210610e0257808260200151610df59190613ccb565b610dff9087613ccb565b95505b84610e0c81613cb2565b95505050505b50600101610cfa565b506040805160808101825291825260208201949094529283019190915260608201529392505050565b6001600160a01b037f0000000000000000000000000000000000000000000000000000000000000000163003610e955760405162461bcd60e51b8152600401610e8c90613cde565b60405180910390fd5b7f00000000000000000000000000000000000000000000000000000000000000006001600160a01b0316610ede600080516020613f94833981519152546001600160a01b031690565b6001600160a01b031614610f045760405162461bcd60e51b8152600401610e8c90613d2a565b610f0d81612ae2565b60408051600080825260208201909252610f2991839190612c0a565b50565b60fb5460408051631d6c8e3f60e21b815290516001600160a01b03909216916391d148549183916375b238fc916004808201926020929091908290030181865afa158015610f7e573d6000803e3d6000fd5b505050506040513d601f19601f82011682018060405250810190610fa29190613d76565b6040516001600160e01b031960e084901b1681526004810191909152336024820152604401602060405180830381865afa158015610fe4573d6000803e3d6000fd5b505050506040513d601f19601f820116820180604052508101906110089190613d8f565b6110245760405162461bcd60e51b8152600401610e8c90613db1565b6001600160a01b03811661107a5760405162461bcd60e51b815260206004820181905260248201527f4465706f7369744d616e616765723a207a65726f206465706f736974206e66746044820152606401610e8c565b60fc546040516001600160a01b038084169216907f9048905df86d6347ef4105a32507db0b243373ad321579f61a04f06600c591de90600090a360fc80546001600160a01b0319166001600160a01b0392909216919091179055565b60fb546040805163e63ab1e960e01b815290516001600160a01b03909216916391d1485491839163e63ab1e9916004808201926020929091908290030181865afa158015611128573d6000803e3d6000fd5b505050506040513d601f19601f8201168201806040525081019061114c9190613d76565b6040516001600160e01b031960e084901b1681526004810191909152336024820152604401602060405180830381865afa15801561118e573d6000803e3d6000fd5b505050506040513d601f19601f820116820180604052508101906111b29190613d8f565b80611294575060fb5460408051631d6c8e3f60e21b815290516001600160a01b03909216916391d148549183916375b238fc916004808201926020929091908290030181865afa15801561120a573d6000803e3d6000fd5b505050506040513d601f19601f8201168201806040525081019061122e9190613d76565b6040516001600160e01b031960e084901b1681526004810191909152336024820152604401602060405180830381865afa158015611270573d6000803e3d6000fd5b505050506040513d601f19601f820116820180604052508101906112949190613d8f565b6112e05760405162461bcd60e51b815260206004820152601a60248201527f4465706f7369744d616e616765723a206e6f74207061757365720000000000006044820152606401610e8c565b6112e8612d7a565b565b60fb5460408051631d6c8e3f60e21b815290516001600160a01b03909216916391d148549183916375b238fc916004808201926020929091908290030181865afa15801561133c573d6000803e3d6000fd5b505050506040513d601f19601f820116820180604052508101906113609190613d76565b6040516001600160e01b031960e084901b1681526004810191909152336024820152604401602060405180830381865afa1580156113a2573d6000803e3d6000fd5b505050506040513d601f19601f820116820180604052508101906113c69190613d8f565b6113e25760405162461bcd60e51b8152600401610e8c90613db1565b6127108211156114345760405162461bcd60e51b815260206004820152601d60248201527f4465706f7369744d616e616765723a20696e76616c6964206c696d69740000006044820152606401610e8c565b600081116114845760405162461bcd60e51b815260206004820152601e60248201527f4465706f7369744d616e616765723a20696e76616c69642077696e646f7700006044820152606401610e8c565b6001600160a01b0383166000818152610102602090815260409182902085905561010584905581518581529081018490527f334bbdb8b703bf62bf208ac4aab61ce597e7cbc77886c92d76b76f77c000b10e910160405180910390a2505050565b6001600160a01b037f000000000000000000000000000000000000000000000000000000000000000016300361152d5760405162461bcd60e51b8152600401610e8c90613cde565b7f00000000000000000000000000000000000000000000000000000000000000006001600160a01b0316611576600080516020613f94833981519152546001600160a01b031690565b6001600160a01b03161461159c5760405162461bcd60e51b8152600401610e8c90613d2a565b6115a582612ae2565b6115b182826001612c0a565b5050565b6000306001600160a01b037f000000000000000000000000000000000000000000000000000000000000000016146116555760405162461bcd60e51b815260206004820152603860248201527f555550535570677261646561626c653a206d757374206e6f742062652063616c60448201527f6c6564207468726f7567682064656c656761746563616c6c00000000000000006064820152608401610e8c565b50600080516020613f9483398151915290565b6000611672612dcc565b61167a612e25565b600080526101006020527f1c215b54eec9ee6aca29c851c685652f7166e29c4e460f5b894f8abee449ad3b543410156116c55760405162461bcd60e51b8152600401610e8c90613de8565b6116d23360003485612e6b565b60fe546040519192506000916001600160a01b039091169034908381818185875af1925050503d8060008114611724576040519150601f19603f3d011682016040523d82523d6000602084013e611729565b606091505b505090508061178b5760405162461bcd60e51b815260206004820152602860248201527f4465706f7369744d616e616765723a207472656173757279207472616e7366656044820152671c8819985a5b195960c21b6064820152608401610e8c565b506117966001606555565b919050565b60fb5460408051631d6c8e3f60e21b815290516001600160a01b03909216916391d148549183916375b238fc916004808201926020929091908290030181865afa1580156117ed573d6000803e3d6000fd5b505050506040513d601f19601f820116820180604052508101906118119190613d76565b6040516001600160e01b031960e084901b1681526004810191909152336024820152604401602060405180830381865afa158015611853573d6000803e3d6000fd5b505050506040513d601f19601f820116820180604052508101906118779190613d8f565b6118935760405162461bcd60e51b8152600401610e8c90613db1565b6001600160a01b0381166118b95760405162461bcd60e51b8152600401610e8c90613e29565b60fd546040516001600160a01b038084169216907f8a5dd7fce1b3e4b4a00e38d2f9a56492ae2b040ad87ed8e3950c849f71bf0f5090600090a360fd80546001600160a01b0319166001600160a01b0392909216919091179055565b600081815260ff60208181526040808420815160e08101835281546001600160a01b03168152600182015493810184905260028201549281019290925260038101546060830152600481015460808301819052600582015460a08401819052600690920154909416151560c08301529193928392611994918691612aa9565b92506119a08385613ccb565b93959294505050565b600081815260ff60208181526040808420815160e08101835281546001600160a01b031681526001820154938101939093526002810154918301919091526003810154606083015260048101546080830152600581015460a08301526006015490911615801560c0830152611a6a5760405162461bcd60e51b815260206004820152602160248201527f4465706f7369744d616e616765723a20616c72656164792077697468647261776044820152603760f91b6064820152608401610e8c565b6000611a83826020015183608001518460a00151612aa9565b905081606001514210611aa757808260200151611aa09190613ccb565b9250611b03565b81516001600160a01b031660009081526101016020526040902054612710811015611b01576000612710828560200151611ae19190613e6c565b611aeb9190613e83565b9050808460200151611afd9190613ea5565b9450505b505b5050919050565b60fb546040805163e63ab1e960e01b815290516001600160a01b03909216916391d1485491839163e63ab1e9916004808201926020929091908290030181865afa158015611b5c573d6000803e3d6000fd5b505050506040513d601f19601f82011682018060405250810190611b809190613d76565b6040516001600160e01b031960e084901b1681526004810191909152336024820152604401602060405180830381865afa158015611bc2573d6000803e3d6000fd5b505050506040513d601f19601f82011682018060405250810190611be69190613d8f565b80611cc8575060fb5460408051631d6c8e3f60e21b815290516001600160a01b03909216916391d148549183916375b238fc916004808201926020929091908290030181865afa158015611c3e573d6000803e3d6000fd5b505050506040513d601f19601f82011682018060405250810190611c629190613d76565b6040516001600160e01b031960e084901b1681526004810191909152336024820152604401602060405180830381865afa158015611ca4573d6000803e3d6000fd5b505050506040513d601f19601f82011682018060405250810190611cc89190613d8f565b611d145760405162461bcd60e51b815260206004820152601a60248201527f4465706f7369744d616e616765723a206e6f74207061757365720000000000006044820152606401610e8c565b6112e86131f6565b60fb5460408051631d6c8e3f60e21b815290516001600160a01b03909216916391d148549183916375b238fc916004808201926020929091908290030181865afa158015611d6e573d6000803e3d6000fd5b505050506040513d601f19601f82011682018060405250810190611d929190613d76565b6040516001600160e01b031960e084901b1681526004810191909152336024820152604401602060405180830381865afa158015611dd4573d6000803e3d6000fd5b505050506040513d601f19601f82011682018060405250810190611df89190613d8f565b611e145760405162461bcd60e51b8152600401610e8c90613db1565b6001600160a01b0382166000818152610100602052604090819020839055517f0f48d517989455cd80ed52427e80553e66f9b69fd5cee8e26bd1a1f9c364fba690611e629084815260200190565b60405180910390a25050565b600081815260ff60208181526040808420815160e08101835281546001600160a01b03168152600182015493810184905260028201549281019290925260038101546060830152600481015460808301819052600582015460a08401819052600690920154909416151560c08301529092611ee99291612aa9565b9392505050565b60fb5460408051631d6c8e3f60e21b815290516001600160a01b03909216916391d148549183916375b238fc916004808201926020929091908290030181865afa158015611f42573d6000803e3d6000fd5b505050506040513d601f19601f82011682018060405250810190611f669190613d76565b6040516001600160e01b031960e084901b1681526004810191909152336024820152604401602060405180830381865afa158015611fa8573d6000803e3d6000fd5b505050506040513d601f19601f82011682018060405250810190611fcc9190613d8f565b611fe85760405162461bcd60e51b8152600401610e8c90613db1565b61271081111561203a5760405162461bcd60e51b815260206004820152601f60248201527f4465706f7369744d616e616765723a20696e76616c69642070656e616c7479006044820152606401610e8c565b6001600160a01b0382166000818152610101602052604090819020839055517f966cad6b1ed1f44c1c39d8f615e5266657a36698dd70436fa3d5eb5294dd15cd90611e629084815260200190565b6000612092612dcc565b61209a612e25565b6001600160a01b0384166120f05760405162461bcd60e51b815260206004820152601d60248201527f4465706f7369744d616e616765723a20696e76616c69642061737365740000006044820152606401610e8c565b6001600160a01b038416600090815261010060205260409020548310156121295760405162461bcd60e51b8152600401610e8c90613de8565b60fe54612145906001600160a01b038681169133911686613233565b61215133858585612e6b565b9050611ee96001606555565b600081815260ff60208181526040808420815160e08101835281546001600160a01b0316815260018201549381019390935260028101549183019190915260038101546060830181905260048201546080840152600582015460a0840152600690910154909216151560c08201529042106121db57600091506121eb565b428160600151611ee99190613ea5565b50919050565b6121f9612dcc565b612201612e25565b60fc546040516331a9108f60e11b81526004810183905233916001600160a01b031690636352211e90602401602060405180830381865afa15801561224a573d6000803e3d6000fd5b505050506040513d601f19601f8201168201806040525081019061226e9190613eb8565b6001600160a01b0316146122c45760405162461bcd60e51b815260206004820152601d60248201527f4465706f7369744d616e616765723a206e6f74206e6674206f776e65720000006044820152606401610e8c565b600081815260ff6020819052604090912060068101549091161561232a5760405162461bcd60e51b815260206004820181905260248201527f4465706f7369744d616e616765723a20616c72656164792072656465656d65646044820152606401610e8c565b6000612343826001015483600401548460050154612aa9565b905060008183600101546123579190613ccb565b9050600083600301544210159050600080821561237657839150612427565b85546001600160a01b03166000908152610101602052604090205461271081106123f45760405162461bcd60e51b815260206004820152602960248201527f4465706f7369744d616e616765723a206561726c79207769746864726177616c60448201526808191a5cd8589b195960ba1b6064820152608401610e8c565b6127108188600101546124079190613e6c565b6124119190613e83565b91508187600101546124239190613ea5565b9250505b855461243c906001600160a01b031683613293565b60068601805460ff1916600117905560fe548654604051634e11e43560e11b81526001600160a01b03918216600482015260248101879052911690639c23c86a90604401600060405180830381600087803b15801561249a57600080fd5b505af11580156124ae573d6000803e3d6000fd5b505060fc54604051630852cd8d60e31b8152600481018b90526001600160a01b0390911692506342966c689150602401600060405180830381600087803b1580156124f857600080fd5b505af115801561250c573d6000803e3d6000fd5b505060fe54885460405163083e007560e21b81526001600160a01b03918216600482015233602482015260448101879052911692506320f801d49150606401600060405180830381600087803b15801561256557600080fd5b505af1158015612579573d6000803e3d6000fd5b50508754600189015460408051918252602082018a905281018690526060810185905286151560808201526001600160a01b03909116925089915033907fd4b9a1e80cada04ada10b4efd98a8240b4eba89e625e606717dd0db090b582f49060a00160405180910390a4505050505050610f296001606555565b60fb5460408051631d6c8e3f60e21b815290516001600160a01b03909216916391d148549183916375b238fc916004808201926020929091908290030181865afa158015612645573d6000803e3d6000fd5b505050506040513d601f19601f820116820180604052508101906126699190613d76565b6040516001600160e01b031960e084901b1681526004810191909152336024820152604401602060405180830381865afa1580156126ab573d6000803e3d6000fd5b505050506040513d601f19601f820116820180604052508101906126cf9190613d8f565b6126eb5760405162461bcd60e51b8152600401610e8c90613db1565b6001600160a01b0381166127415760405162461bcd60e51b815260206004820152601d60248201527f4465706f7369744d616e616765723a207a65726f2074726561737572790000006044820152606401610e8c565b60fe546040516001600160a01b038084169216907f4ab5be82436d353e61ca18726e984e561f5c1cc7c6d38b29d2553c790434705a90600090a360fe80546001600160a01b0319166001600160a01b0392909216919091179055565b600054610100900460ff16158080156127bd5750600054600160ff909116105b806127d75750303b1580156127d7575060005460ff166001145b61283a5760405162461bcd60e51b815260206004820152602e60248201527f496e697469616c697a61626c653a20636f6e747261637420697320616c72656160448201526d191e481a5b9a5d1a585b1a5e995960921b6064820152608401610e8c565b6000805460ff19166001179055801561285d576000805461ff0019166101001790555b6001600160a01b0385166128c25760405162461bcd60e51b815260206004820152602660248201527f4465706f7369744d616e616765723a207a65726f2061636365737320636f6e746044820152653937b63632b960d11b6064820152608401610e8c565b6001600160a01b0384166129185760405162461bcd60e51b815260206004820181905260248201527f4465706f7369744d616e616765723a207a65726f206465706f736974206e66746044820152606401610e8c565b6001600160a01b03831661293e5760405162461bcd60e51b8152600401610e8c90613e29565b6001600160a01b0382166129945760405162461bcd60e51b815260206004820152601d60248201527f4465706f7369744d616e616765723a207a65726f2074726561737572790000006044820152606401610e8c565b61299c61347a565b6129a46134a9565b6129ac6134d8565b60fb80546001600160a01b038088166001600160a01b03199283161790925560fc805487841690831617905560fd805486841690831617905560fe80549285169290911691909117905562015180610105556000808052662386f26fc100007f1c215b54eec9ee6aca29c851c685652f7166e29c4e460f5b894f8abee449ad3b5561010160205261012c7f0cdd55771c7d27dcc6a0e4e270b6c2288741ffbaa23147ee33eabaa4ce4aa59f55610106558015612aa2576000805461ff0019169055604051600181527f7f26b83ff96e1f2b6a682f133852f6798a09c465da95921460cefb38474024989060200160405180910390a15b5050505050565b6000612abb6301e13380612710613e6c565b82612ac68587613e6c565b612ad09190613e6c565b612ada9190613e83565b949350505050565b60fb546040805163f72c0d8b60e01b815290516001600160a01b03909216916391d1485491839163f72c0d8b916004808201926020929091908290030181865afa158015612b34573d6000803e3d6000fd5b505050506040513d601f19601f82011682018060405250810190612b589190613d76565b6040516001600160e01b031960e084901b1681526004810191909152336024820152604401602060405180830381865afa158015612b9a573d6000803e3d6000fd5b505050506040513d601f19601f82011682018060405250810190612bbe9190613d8f565b610f295760405162461bcd60e51b815260206004820152601c60248201527f4465706f7369744d616e616765723a206e6f74207570677261646572000000006044820152606401610e8c565b7f4910fdfa16fed3260ed0e7147f7cc6da11a60208b5b9406d12a635614ffd91435460ff1615612c4257612c3d836134ff565b505050565b826001600160a01b03166352d1902d6040518163ffffffff1660e01b8152600401602060405180830381865afa925050508015612c9c575060408051601f3d908101601f19168201909252612c9991810190613d76565b60015b612cff5760405162461bcd60e51b815260206004820152602e60248201527f45524331393637557067726164653a206e657720696d706c656d656e7461746960448201526d6f6e206973206e6f74205555505360901b6064820152608401610e8c565b600080516020613f948339815191528114612d6e5760405162461bcd60e51b815260206004820152602960248201527f45524331393637557067726164653a20756e737570706f727465642070726f786044820152681a58589b195555525160ba1b6064820152608401610e8c565b50612c3d83838361359b565b612d826135c0565b60c9805460ff191690557f5db9ee0a495bf2e6ff9c91a7834c1ba4fdd244a5e8aa4e537bd38aeae4b073aa335b6040516001600160a01b03909116815260200160405180910390a1565b600260655403612e1e5760405162461bcd60e51b815260206004820152601f60248201527f5265656e7472616e637947756172643a207265656e7472616e742063616c6c006044820152606401610e8c565b6002606555565b60c95460ff16156112e85760405162461bcd60e51b815260206004820152601060248201526f14185d5cd8589b194e881c185d5cd95960821b6044820152606401610e8c565b6000808311612ebc5760405162461bcd60e51b815260206004820152601b60248201527f4465706f7369744d616e616765723a207a65726f20616d6f756e7400000000006044820152606401610e8c565b60008211612f1a5760405162461bcd60e51b815260206004820152602560248201527f4465706f7369744d616e616765723a20696e76616c6964206c6f636b2064757260448201526430ba34b7b760d91b6064820152608401610e8c565b60fd546040516345c5657f60e11b81526001600160a01b038681166004830152602482018590526000921690638b8acafe90604401602060405180830381865afa158015612f6c573d6000803e3d6000fd5b505050506040513d601f19601f82011682018060405250810190612f909190613d76565b90506000612f9f858386612aa9565b60fc546040516335313c2160e11b81526001600160a01b038a81166004830152929350911690636a627842906024016020604051808303816000875af1158015612fed573d6000803e3d6000fd5b505050506040513d601f19601f820116820180604052508101906130119190613d76565b92506040518060e00160405280876001600160a01b0316815260200186815260200142815260200185426130459190613ccb565b8152602080820185905260408083018890526000606093840181905287815260ff8352818120855181546001600160a01b0319166001600160a01b03918216178255868501516001808401919091558785015160028401559587015160038301556080870151600483015560a0870151600583015560c0909601516006909101805460ff1916911515919091179055938b168452610104825283208054928301815583528220018490556101068054916130fe83613cb2565b909155505060fe546001600160a01b031663b9ff644a8761311f8489613ccb565b6040516001600160e01b031960e085901b1681526001600160a01b0390921660048301526024820152604401600060405180830381600087803b15801561316557600080fd5b505af1158015613179573d6000803e3d6000fd5b50505050856001600160a01b031683886001600160a01b03167f5e3f8afc0fd8ca3b698d61a612d4823e24ae99f94e837d1e91e90ef3bc3aac3b8886898a426131c29190613ccb565b60408051948552602085019390935291830152606082015260800160405180910390a45050949350505050565b6001606555565b6131fe612e25565b60c9805460ff191660011790557f62e78cea01bee320cd4e420270b5ea74000d11b0c9f74754ebdbfc544b05a258612daf3390565b604080516001600160a01b0385811660248301528416604482015260648082018490528251808303909101815260849091019091526020810180516001600160e01b03166323b872dd60e01b17905261328d908590613609565b50505050565b6001600160a01b03821660009081526101026020526040812054908190036132ba57505050565b6001600160a01b038316600090815261010360205260409020805415806132ef57506101055481546132ec9190613ccb565b42115b156132ff57428155600060018201555b60fe546040516319b11cab60e31b81526001600160a01b038681166004830152600092169063cd88e55890602401602060405180830381865afa15801561334a573d6000803e3d6000fd5b505050506040513d601f19601f8201168201806040525081019061336e9190613d76565b9050600061271061337f8584613e6c565b6133899190613e83565b9050600081116133e95760405162461bcd60e51b815260206004820152602560248201527f4465706f7369744d616e616765723a207769746864726177616c206c696d6974604482015264207a65726f60d81b6064820152608401610e8c565b808584600101546133fa9190613ccb565b11156134595760405162461bcd60e51b815260206004820152602860248201527f4465706f7369744d616e616765723a207769746864726177616c206c696d6974604482015267081c995858da195960c21b6064820152608401610e8c565b8483600101600082825461346d9190613ccb565b9091555050505050505050565b600054610100900460ff166134a15760405162461bcd60e51b8152600401610e8c90613ed5565b6112e86136de565b600054610100900460ff166134d05760405162461bcd60e51b8152600401610e8c90613ed5565b6112e8613705565b600054610100900460ff166112e85760405162461bcd60e51b8152600401610e8c90613ed5565b6001600160a01b0381163b61356c5760405162461bcd60e51b815260206004820152602d60248201527f455243313936373a206e657720696d706c656d656e746174696f6e206973206e60448201526c1bdd08184818dbdb9d1c9858dd609a1b6064820152608401610e8c565b600080516020613f9483398151915280546001600160a01b0319166001600160a01b0392909216919091179055565b6135a483613738565b6000825111806135b15750805b15612c3d5761328d8383613778565b60c95460ff166112e85760405162461bcd60e51b815260206004820152601460248201527314185d5cd8589b194e881b9bdd081c185d5cd95960621b6044820152606401610e8c565b600061365e826040518060400160405280602081526020017f5361666545524332303a206c6f772d6c6576656c2063616c6c206661696c6564815250856001600160a01b03166137a69092919063ffffffff16565b905080516000148061367f57508080602001905181019061367f9190613d8f565b612c3d5760405162461bcd60e51b815260206004820152602a60248201527f5361666545524332303a204552433230206f7065726174696f6e20646964206e6044820152691bdd081cdd58d8d9595960b21b6064820152608401610e8c565b600054610100900460ff166131ef5760405162461bcd60e51b8152600401610e8c90613ed5565b600054610100900460ff1661372c5760405162461bcd60e51b8152600401610e8c90613ed5565b60c9805460ff19169055565b613741816134ff565b6040516001600160a01b038216907fbc7cd75a20ee27fd9adebab32041f755214dbc6bffa90cc0225b39da2e5c2d3b90600090a250565b606061379d8383604051806060016040528060278152602001613fb4602791396137b5565b90505b92915050565b6060612ada848460008561382d565b6060600080856001600160a01b0316856040516137d29190613f44565b600060405180830381855af49150503d806000811461380d576040519150601f19603f3d011682016040523d82523d6000602084013e613812565b606091505b509150915061382386838387613908565b9695505050505050565b60608247101561388e5760405162461bcd60e51b815260206004820152602660248201527f416464726573733a20696e73756666696369656e742062616c616e636520666f6044820152651c8818d85b1b60d21b6064820152608401610e8c565b600080866001600160a01b031685876040516138aa9190613f44565b60006040518083038185875af1925050503d80600081146138e7576040519150601f19603f3d011682016040523d82523d6000602084013e6138ec565b606091505b50915091506138fd87838387613908565b979650505050505050565b60608315613977578251600003613970576001600160a01b0385163b6139705760405162461bcd60e51b815260206004820152601d60248201527f416464726573733a2063616c6c20746f206e6f6e2d636f6e74726163740000006044820152606401610e8c565b5081612ada565b612ada838381511561398c5781518083602001fd5b8060405162461bcd60e51b8152600401610e8c9190613f60565b6040518061012001604052806000815260200160006001600160a01b0316815260200160008152602001600081526020016000815260200160008152602001600015158152602001600015158152602001600081525090565b6001600160a01b0381168114610f2957600080fd5b600060208284031215613a2657600080fd5b8135611ee9816139ff565b602080825282518282018190526000919060409081850190868401855b82811015613ac957815180518552868101516001600160a01b0316878601528581015186860152606080820151908601526080808201519086015260a0808201519086015260c08082015115159086015260e08082015115159086015261010090810151908501526101209093019290850190600101613a4e565b5091979650505050505050565b600080600060608486031215613aeb57600080fd5b8335613af6816139ff565b95602085013595506040909401359392505050565b634e487b7160e01b600052604160045260246000fd5b60008060408385031215613b3457600080fd5b8235613b3f816139ff565b9150602083013567ffffffffffffffff80821115613b5c57600080fd5b818501915085601f830112613b7057600080fd5b813581811115613b8257613b82613b0b565b604051601f8201601f19908116603f01168101908382118183101715613baa57613baa613b0b565b81604052828152886020848701011115613bc357600080fd5b8260208601602083013760006020848301015280955050505050509250929050565b600060208284031215613bf757600080fd5b5035919050565b60008060408385031215613c1157600080fd5b8235613c1c816139ff565b946020939093013593505050565b60008060008060808587031215613c4057600080fd5b8435613c4b816139ff565b93506020850135613c5b816139ff565b92506040850135613c6b816139ff565b91506060850135613c7b816139ff565b939692955090935050565b634e487b7160e01b600052603260045260246000fd5b634e487b7160e01b600052601160045260246000fd5b600060018201613cc457613cc4613c9c565b5060010190565b808201808211156137a0576137a0613c9c565b6020808252602c908201527f46756e6374696f6e206d7573742062652063616c6c6564207468726f7567682060408201526b19195b1959d85d1958d85b1b60a21b606082015260800190565b6020808252602c908201527f46756e6374696f6e206d7573742062652063616c6c6564207468726f7567682060408201526b6163746976652070726f787960a01b606082015260800190565b600060208284031215613d8857600080fd5b5051919050565b600060208284031215613da157600080fd5b81518015158114611ee957600080fd5b60208082526019908201527f4465706f7369744d616e616765723a206e6f742061646d696e00000000000000604082015260600190565b60208082526021908201527f4465706f7369744d616e616765723a2062656c6f77206d696e206465706f73696040820152601d60fa1b606082015260800190565b60208082526023908201527f4465706f7369744d616e616765723a207a65726f20696e746572657374206d6f60408201526219195b60ea1b606082015260800190565b80820281158282048414176137a0576137a0613c9c565b600082613ea057634e487b7160e01b600052601260045260246000fd5b500490565b818103818111156137a0576137a0613c9c565b600060208284031215613eca57600080fd5b8151611ee9816139ff565b6020808252602b908201527f496e697469616c697a61626c653a20636f6e7472616374206973206e6f74206960408201526a6e697469616c697a696e6760a81b606082015260800190565b60005b83811015613f3b578181015183820152602001613f23565b50506000910152565b60008251613f56818460208701613f20565b9190910192915050565b6020815260008251806020840152613f7f816040850160208701613f20565b601f01601f1916919091016040019291505056fe360894a13ba1a3210667c828492db98dca3e2076cc3735a920a3ca505d382bbc416464726573733a206c6f772d6c6576656c2064656c65676174652063616c6c206661696c6564a26469706673582212201307f5c7a9c3524d04623368a5da043198f08a16ad5097edb08a5d62c2d4e67164736f6c63430008180033",
  "linkReferences": {},
  "deployedLinkReferences": {}
}