{
  "_format": "hh-sol-artifact-1",
  "contractName": "DepositNFT",
  "sourceName": "contracts/DepositNFT.sol",
  "abi": [
    {
      "inputs": [
        {
          "internalType": "string",
          "name": "name_",
          "type": "string"
        },
        {
          "internalType": "string",
          "name": "symbol_",
          "type": "string"
        },
        {
          "internalType": "address",
          "name": "accessController_",
          "type": "address"
        },
        {
          "internalType": "address",
          "name": "manager_",
          "type": "address"
        }
      ],
      "stateMutability": "nonpayable",
      "type": "constructor"
    },
    {
      "anonymous": false,
      "inputs": [
        {
          "indexed": true,
          "internalType": "address",
          "name": "owner",
          "type": "address"
        },
        {
          "indexed": true,
          "internalType": "address",
          "name": "approved",
          "type": "address"
        },
        {
          "indexed": true,
          "internalType": "uint256",
          "name": "tokenId",
          "type": "uint256"
        }
      ],
      "name": "Approval",
      "type": "event"
    },
    {
      "anonymous": false,
      "inputs": [
        {
          "indexed": true,
          "internalType": "address",
          "name": "owner",
          "type": "address"
        },
        {
          "indexed": true,
          "internalType": "address",
          "name": "operator",
          "type": "address"
        },
        {
          "indexed": false,
          "internalType": "bool",
          "name": "approved",
          "type": "bool"
        }
      ],
      "name": "ApprovalForAll",
      "type": "event"
    },
    {
      "anonymous": false,
      "inputs": [
        {
          "indexed": true,
          "internalType": "address",
          "name": "previousManager",
          "type": "address"
        },
        {
          "indexed": true,
          "internalType": "address",
          "name": "newManager",
          "type": "address"
        }
      ],
      "name": "ManagerUpdated",
      "type": "event"
    },
    {
      "anonymous": false,
      "inputs": [
        {
          "indexed": true,
          "internalType": "address",
          "name": "from",
          "type": "address"
        },
        {
          "indexed": true,
          "internalType": "address",
          "name": "to",
          "type": "address"
        },
        {
          "indexed": true,
          "internalType": "uint256",
          "name": "tokenId",
          "type": "uint256"
        }
      ],
      "name": "Transfer",
      "type": "event"
    },
    {
      "inputs": [],
      "name": "accessController",
      "outputs": [
        {
          "internalType": "contract AccessController",
          "name": "",
          "type": "address"
        }
      ],
      "stateMutability": "view",
      "type": "function"
    },
    {
      "inputs": [
        {
          "internalType": "address",
          "name": "to",
          "type": "address"
        },
        {
          "internalType": "uint256",
          "name": "tokenId",
          "type": "uint256"
        }
      ],
      "name": "approve",
      "outputs": [],
      "stateMutability": "nonpayable",
      "type": "function"
    },
    {
      "inputs": [
        {
          "internalType": "address",
          "name": "owner",
          "type": "address"
        }
      ],
      "name": "balanceOf",
      "outputs": [
        {
          "internalType": "uint256",
          "name": "",
          "type": "uint256"
        }
      ],
      "stateMutability": "view",
      "type": "function"
    },
    {
      "inputs": [
        {
          "internalType": "uint256",
          "name": "tokenId",
          "type": "uint256"
        }
      ],
      "name": "burn",
      "outputs": [],
      "stateMutability": "nonpayable",
      "type": "function"
    },
    {
      "inputs": [
        {
          "internalType": "uint256",
          "name": "tokenId",
          "type": "uint256"
        }
      ],
      "name": "getApproved",
      "outputs": [
        {
          "internalType": "address",
          "name": "",
          "type": "address"
        }
      ],
      "stateMutability": "view",
      "type": "function"
    },
    {
      "inputs": [
        {
          "internalType": "address",
          "name": "owner",
          "type": "address"
        },
        {
          "internalType": "address",
          "name": "operator",
          "type": "address"
        }
      ],
      "name": "isApprovedForAll",
      "outputs": [
        {
          "internalType": "bool",
          "name": "",
          "type": "bool"
        }
      ],
      "stateMutability": "view",
      "type": "function"
    },
    {
      "inputs": [],
      "name": "manager",
      "outputs": [
        {
          "internalType": "address",
          "name": "",
          "type": "address"
        }
      ],
      "stateMutability": "view",
      "type": "function"
    },
    {
      "inputs": [
        {
          "internalType": "address",
          "name": "to",
          "type": "address"
        }
      ],
      "name": "mint",
      "outputs": [
        {
          "internalType": "uint256",
          "name": "tokenId",
          "type": "uint256"
        }
      ],
      "stateMutability": "nonpayable",
      "type": "function"
    },
    {
      "inputs": [],
      "name": "name",
      "outputs": [
        {
          "internalType": "string",
          "name": "",
          "type": "string"
        }
      ],
      "stateMutability": "view",
      "type": "function"
    },
    {
      "inputs": [
        {
          "internalType": "uint256",
          "name": "tokenId",
          "type": "uint256"
        }
      ],
      "name": "ownerOf",
      "outputs": [
        {
          "internalType": "address",
          "name": "",
          "type": "address"
        }
      ],
      "stateMutability": "view",
      "type": "function"
    },
    {
      "inputs": [
        {
          "internalType": "address",
          "name": "from",
          "type": "address"
        },
        {
          "internalType": "address",
          "name": "to",
          "type": "address"
        },
        {
          "internalType": "uint256",
          "name": "tokenId",
          "type": "uint256"
        }
      ],
      "name": "safeTransferFrom",
      "outputs": [],
      "stateMutability": "nonpayable",
      "type": "function"
    },
    {
      "inputs": [
        {
          "internalType": "address",
          "name": "from",
          "type": "address"
        },
        {
          "internalType": "address",
          "name": "to",
          "type": "address"
        },
        {
          "internalType": "uint256",
          "name": "tokenId",
          "type": "uint256"
        },
        {
          "internalType": "bytes",
          "name": "data",
          "type": "bytes"
        }
      ],
      "name": "safeTransferFrom",
      "outputs": [],
      "stateMutability": "nonpayable",
      "type": "function"
    },
    {
      "inputs": [
        {
          "internalType": "address",
          "name": "operator",
          "type": "address"
        },
        {
          "internalType": "bool",
          "name": "approved",
          "type": "bool"
        }
      ],
      "name": "setApprovalForAll",
      "outputs": [],
      "stateMutability": "nonpayable",
      "type": "function"
    },
    {
      "inputs": [
        {
          "internalType": "address",
          "name": "newManager",
          "type": "address"
        }
      ],
      "name": "setManager",
      "outputs": [],
      "stateMutability": "nonpayable",
      "type": "function"
    },
    {
      "inputs": [
        {
          "internalType": "bytes4",
          "name": "interfaceId",
          "type": "bytes4"
        }
      ],
      "name": "supportsInterface",
      "outputs": [
        {
          "internalType": "bool",
          "name": "",
          "type": "bool"
        }
      ],
      "stateMutability": "view",
      "type": "function"
    },
    {
      "inputs": [],
      "name": "symbol",
      "outputs": [
        {
          "internalType": "string",
          "name": "",
          "type": "string"
        }
      ],
      "stateMutability": "view",
      "type": "function"
    },
    {
      "inputs": [
        {
          "internalType": "uint256",
          "name": "tokenId",
          "type": "uint256"
        }
      ],
      "name": "tokenURI",
      "outputs": [
        {
          "internalType": "string",
          "name": "",
          "type": "string"
        }
      ],
      "stateMutability": "view",
      "type": "function"
    },
    {
      "inputs": [
        {
          "internalType": "address",
          "name": "from",
          "type": "address"
        },
        {
          "internalType": "address",
          "name": "to",
          "type": "address"
        },
        {
          "internalType": "uint256",
          "name": "tokenId",
          "type": "uint256"
        }
      ],
      "name": "transferFrom",
      "outputs": [],
      "stateMutability": "nonpayable",
      "type": "function"
    }
  ],
  "bytecode": "0x60a06040523480156200001157600080fd5b5060405162001bf338038062001bf3833981016040819052620000349162000226565b8383600062000044838262000346565b50600162000053828262000346565b5050506001600160a01b038216620000bd5760405162461bcd60e51b815260206004820152602260248201527f4465706f7369744e46543a207a65726f2061636365737320636f6e74726f6c6c60448201526132b960f11b60648201526084015b60405180910390fd5b6001600160a01b038116620001155760405162461bcd60e51b815260206004820152601860248201527f4465706f7369744e46543a207a65726f206d616e6167657200000000000000006044820152606401620000b4565b6001600160a01b03918216608052600680546001600160a01b0319169190921617905550620004129050565b634e487b7160e01b600052604160045260246000fd5b600082601f8301126200016957600080fd5b81516001600160401b038082111562000186576200018662000141565b604051601f8301601f19908116603f01168101908282118183101715620001b157620001b162000141565b8160405283815260209250866020858801011115620001cf57600080fd5b600091505b83821015620001f35785820183015181830184015290820190620001d4565b6000602085830101528094505050505092915050565b80516001600160a01b03811681146200022157600080fd5b919050565b600080600080608085870312156200023d57600080fd5b84516001600160401b03808211156200025557600080fd5b620002638883890162000157565b955060208701519150808211156200027a57600080fd5b50620002898782880162000157565b9350506200029a6040860162000209565b9150620002aa6060860162000209565b905092959194509250565b600181811c90821680620002ca57607f821691505b602082108103620002eb57634e487b7160e01b600052602260045260246000fd5b50919050565b601f82111562000341576000816000526020600020601f850160051c810160208610156200031c5750805b601f850160051c820191505b818110156200033d5782815560010162000328565b5050505b505050565b81516001600160401b0381111562000362576200036262000141565b6200037a81620003738454620002b5565b84620002f1565b602080601f831160018114620003b25760008415620003995750858301515b600019600386901b1c1916600185901b1785556200033d565b600085815260208120601f198616915b82811015620003e357888601518255948401946001909101908401620003c2565b5085821015620004025787850151600019600388901b60f8161c191681555b5050505050600190811b01905550565b6080516117b76200043c6000396000818161025e01528181610837015261086601526117b76000f3fe608060405234801561001057600080fd5b50600436106101165760003560e01c80636a627842116100a2578063b88d4fde11610071578063b88d4fde14610246578063bc43cbaf14610259578063c87b56dd14610280578063d0ebdbe714610293578063e985e9c5146102a657600080fd5b80636a627842146101f757806370a082311461021857806395d89b411461022b578063a22cb4651461023357600080fd5b806323b872dd116100e957806323b872dd1461019857806342842e0e146101ab57806342966c68146101be578063481c6a75146101d15780636352211e146101e457600080fd5b806301ffc9a71461011b57806306fdde0314610143578063081812fc14610158578063095ea7b314610183575b600080fd5b61012e6101293660046112e2565b6102e2565b60405190151581526020015b60405180910390f35b61014b610334565b60405161013a919061134f565b61016b610166366004611362565b6103c6565b6040516001600160a01b03909116815260200161013a565b610196610191366004611392565b6103ed565b005b6101966101a63660046113bc565b610507565b6101966101b93660046113bc565b610538565b6101966101cc366004611362565b610553565b60065461016b906001600160a01b031681565b61016b6101f2366004611362565b6105b3565b61020a6102053660046113f8565b610613565b60405190815260200161013a565b61020a6102263660046113f8565b6106e5565b61014b61076b565b610196610241366004611421565b61077a565b61019661025436600461146e565b610789565b61016b7f000000000000000000000000000000000000000000000000000000000000000081565b61014b61028e366004611362565b6107c1565b6101966102a13660046113f8565b610835565b61012e6102b436600461154a565b6001600160a01b03918216600090815260056020908152604080832093909416825291909152205460ff1690565b60006001600160e01b031982166380ac58cd60e01b148061031357506001600160e01b03198216635b5e139f60e01b145b8061032e57506301ffc9a760e01b6001600160e01b03198316145b92915050565b6060600080546103439061157d565b80601f016020809104026020016040519081016040528092919081815260200182805461036f9061157d565b80156103bc5780601f10610391576101008083540402835291602001916103bc565b820191906000526020600020905b81548152906001019060200180831161039f57829003601f168201915b5050505050905090565b60006103d182610a42565b506000908152600460205260409020546001600160a01b031690565b60006103f8826105b3565b9050806001600160a01b0316836001600160a01b03160361046a5760405162461bcd60e51b815260206004820152602160248201527f4552433732313a20617070726f76616c20746f2063757272656e74206f776e656044820152603960f91b60648201526084015b60405180910390fd5b336001600160a01b0382161480610486575061048681336102b4565b6104f85760405162461bcd60e51b815260206004820152603d60248201527f4552433732313a20617070726f76652063616c6c6572206973206e6f7420746f60448201527f6b656e206f776e6572206f7220617070726f76656420666f7220616c6c0000006064820152608401610461565b6105028383610aa1565b505050565b6105113382610b0f565b61052d5760405162461bcd60e51b8152600401610461906115b7565b610502838383610b8e565b61050283838360405180602001604052806000815250610789565b6006546001600160a01b031633146105a75760405162461bcd60e51b81526020600482015260176024820152762232b837b9b4ba27232a1d103737ba1036b0b730b3b2b960491b6044820152606401610461565b6105b081610cf2565b50565b6000818152600260205260408120546001600160a01b03168061032e5760405162461bcd60e51b8152602060048201526018602482015277115490cdcc8c4e881a5b9d985b1a59081d1bdad95b88125160421b6044820152606401610461565b6006546000906001600160a01b0316331461066a5760405162461bcd60e51b81526020600482015260176024820152762232b837b9b4ba27232a1d103737ba1036b0b730b3b2b960491b6044820152606401610461565b6001600160a01b0382166106c05760405162461bcd60e51b815260206004820152601a60248201527f4465706f7369744e46543a207a65726f20726563697069656e740000000000006044820152606401610461565b6007600081546106cf90611604565b918290555090506106e08282610d87565b919050565b60006001600160a01b03821661074f5760405162461bcd60e51b815260206004820152602960248201527f4552433732313a2061646472657373207a65726f206973206e6f7420612076616044820152683634b21037bbb732b960b91b6064820152608401610461565b506001600160a01b031660009081526003602052604090205490565b6060600180546103439061157d565b610785338383610da1565b5050565b6107933383610b0f565b6107af5760405162461bcd60e51b8152600401610461906115b7565b6107bb84848484610e6f565b50505050565b60606107cc82610a42565b60006107e360408051602081019091526000815290565b90506000815111610803576040518060200160405280600081525061082e565b8061080d84610ea2565b60405160200161081e92919061162b565b6040516020818303038152906040525b9392505050565b7f00000000000000000000000000000000000000000000000000000000000000006001600160a01b03166391d148547f00000000000000000000000000000000000000000000000000000000000000006001600160a01b03166375b238fc6040518163ffffffff1660e01b8152600401602060405180830381865afa1580156108c2573d6000803e3d6000fd5b505050506040513d601f19601f820116820180604052508101906108e6919061165a565b6040516001600160e01b031960e084901b1681526004810191909152336024820152604401602060405180830381865afa158015610928573d6000803e3d6000fd5b505050506040513d601f19601f8201168201806040525081019061094c9190611673565b6109905760405162461bcd60e51b81526020600482015260156024820152742232b837b9b4ba27232a1d103737ba1030b236b4b760591b6044820152606401610461565b6001600160a01b0381166109e65760405162461bcd60e51b815260206004820152601860248201527f4465706f7369744e46543a207a65726f206d616e6167657200000000000000006044820152606401610461565b6006546040516001600160a01b038084169216907fdac3632743b879638fd2d51c4d3c1dd796615b4758a55b50b0c19b971ba9fbc790600090a3600680546001600160a01b0319166001600160a01b0392909216919091179055565b6000818152600260205260409020546001600160a01b03166105b05760405162461bcd60e51b8152602060048201526018602482015277115490cdcc8c4e881a5b9d985b1a59081d1bdad95b88125160421b6044820152606401610461565b600081815260046020526040902080546001600160a01b0319166001600160a01b0384169081179091558190610ad6826105b3565b6001600160a01b03167f8c5be1e5ebec7d5bd14f71427d1e84f3dd0314c0f7b2291e5b200ac8c7c3b92560405160405180910390a45050565b600080610b1b836105b3565b9050806001600160a01b0316846001600160a01b03161480610b6257506001600160a01b0380821660009081526005602090815260408083209388168352929052205460ff165b80610b865750836001600160a01b0316610b7b846103c6565b6001600160a01b0316145b949350505050565b826001600160a01b0316610ba1826105b3565b6001600160a01b031614610bc75760405162461bcd60e51b815260040161046190611690565b6001600160a01b038216610c295760405162461bcd60e51b8152602060048201526024808201527f4552433732313a207472616e7366657220746f20746865207a65726f206164646044820152637265737360e01b6064820152608401610461565b826001600160a01b0316610c3c826105b3565b6001600160a01b031614610c625760405162461bcd60e51b815260040161046190611690565b600081815260046020908152604080832080546001600160a01b03199081169091556001600160a01b0387811680865260038552838620805460001901905590871680865283862080546001019055868652600290945282852080549092168417909155905184937fddf252ad1be2c89b69c2b068fc378daa952ba7f163c4a11628f55a4df523b3ef91a4505050565b6000610cfd826105b3565b9050610d08826105b3565b600083815260046020908152604080832080546001600160a01b03199081169091556001600160a01b0385168085526003845282852080546000190190558785526002909352818420805490911690555192935084927fddf252ad1be2c89b69c2b068fc378daa952ba7f163c4a11628f55a4df523b3ef908390a45050565b610785828260405180602001604052806000815250610f35565b816001600160a01b0316836001600160a01b031603610e025760405162461bcd60e51b815260206004820152601960248201527f4552433732313a20617070726f766520746f2063616c6c6572000000000000006044820152606401610461565b6001600160a01b03838116600081815260056020908152604080832094871680845294825291829020805460ff191686151590811790915591519182527f17307eab39ab6107e8899845ad3d59bd9653f200f220920489ca2b5937696c31910160405180910390a3505050565b610e7a848484610b8e565b610e8684848484610f68565b6107bb5760405162461bcd60e51b8152600401610461906116d5565b60606000610eaf83611069565b600101905060008167ffffffffffffffff811115610ecf57610ecf611458565b6040519080825280601f01601f191660200182016040528015610ef9576020820181803683370190505b5090508181016020015b600019016f181899199a1a9b1b9c1cb0b131b232b360811b600a86061a8153600a8504945084610f0357509392505050565b610f3f8383611141565b610f4c6000848484610f68565b6105025760405162461bcd60e51b8152600401610461906116d5565b60006001600160a01b0384163b1561105e57604051630a85bd0160e11b81526001600160a01b0385169063150b7a0290610fac903390899088908890600401611727565b6020604051808303816000875af1925050508015610fe7575060408051601f3d908101601f19168201909252610fe491810190611764565b60015b611044573d808015611015576040519150601f19603f3d011682016040523d82523d6000602084013e61101a565b606091505b50805160000361103c5760405162461bcd60e51b8152600401610461906116d5565b805181602001fd5b6001600160e01b031916630a85bd0160e11b149050610b86565b506001949350505050565b60008072184f03e93ff9f4daa797ed6e38ed64bf6a1f0160401b83106110a85772184f03e93ff9f4daa797ed6e38ed64bf6a1f0160401b830492506040015b6d04ee2d6d415b85acef810000000083106110d4576d04ee2d6d415b85acef8100000000830492506020015b662386f26fc1000083106110f257662386f26fc10000830492506010015b6305f5e100831061110a576305f5e100830492506008015b612710831061111e57612710830492506004015b60648310611130576064830492506002015b600a831061032e5760010192915050565b6001600160a01b0382166111975760405162461bcd60e51b815260206004820181905260248201527f4552433732313a206d696e7420746f20746865207a65726f20616464726573736044820152606401610461565b6000818152600260205260409020546001600160a01b0316156111fc5760405162461bcd60e51b815260206004820152601c60248201527f4552433732313a20746f6b656e20616c7265616479206d696e746564000000006044820152606401610461565b6000818152600260205260409020546001600160a01b0316156112615760405162461bcd60e51b815260206004820152601c60248201527f4552433732313a20746f6b656e20616c7265616479206d696e746564000000006044820152606401610461565b6001600160a01b038216600081815260036020908152604080832080546001019055848352600290915280822080546001600160a01b0319168417905551839291907fddf252ad1be2c89b69c2b068fc378daa952ba7f163c4a11628f55a4df523b3ef908290a45050565b6001600160e01b0319811681146105b057600080fd5b6000602082840312156112f457600080fd5b813561082e816112cc565b60005b8381101561131a578181015183820152602001611302565b50506000910152565b6000815180845261133b8160208601602086016112ff565b601f01601f19169290920160200192915050565b60208152600061082e6020830184611323565b60006020828403121561137457600080fd5b5035919050565b80356001600160a01b03811681146106e057600080fd5b600080604083850312156113a557600080fd5b6113ae8361137b565b946020939093013593505050565b6000806000606084860312156113d157600080fd5b6113da8461137b565b92506113e86020850161137b565b9150604084013590509250925092565b60006020828403121561140a57600080fd5b61082e8261137b565b80151581146105b057600080fd5b6000806040838503121561143457600080fd5b61143d8361137b565b9150602083013561144d81611413565b809150509250929050565b634e487b7160e01b600052604160045260246000fd5b6000806000806080858703121561148457600080fd5b61148d8561137b565b935061149b6020860161137b565b925060408501359150606085013567ffffffffffffffff808211156114bf57600080fd5b818701915087601f8301126114d357600080fd5b8135818111156114e5576114e5611458565b604051601f8201601f19908116603f0116810190838211818310171561150d5761150d611458565b816040528281528a602084870101111561152657600080fd5b82602086016020830137600060208483010152809550505050505092959194509250565b6000806040838503121561155d57600080fd5b6115668361137b565b91506115746020840161137b565b90509250929050565b600181811c9082168061159157607f821691505b6020821081036115b157634e487b7160e01b600052602260045260246000fd5b50919050565b6020808252602d908201527f4552433732313a2063616c6c6572206973206e6f7420746f6b656e206f776e6560408201526c1c881bdc88185c1c1c9bdd9959609a1b606082015260800190565b60006001820161162457634e487b7160e01b600052601160045260246000fd5b5060010190565b6000835161163d8184602088016112ff565b8351908301906116518183602088016112ff565b01949350505050565b60006020828403121561166c57600080fd5b5051919050565b60006020828403121561168557600080fd5b815161082e81611413565b60208082526025908201527f4552433732313a207472616e736665722066726f6d20696e636f72726563742060408201526437bbb732b960d91b606082015260800190565b60208082526032908201527f4552433732313a207472616e7366657220746f206e6f6e20455243373231526560408201527131b2b4bb32b91034b6b83632b6b2b73a32b960711b606082015260800190565b6001600160a01b038581168252841660208201526040810183905260806060820181905260009061175a90830184611323565b9695505050505050565b60006020828403121561177657600080fd5b815161082e816112cc56fea2646970667358221220dd7dfb85cafbb26a1225cc2097f712b996dac88aca5c60f189a9de1e5d3a06d864736f6c63430008180033",
  "linkReferences": {},
  "deployedLinkReferences": {}
}