{
  "_format": "hh-sol-artifact-1",
  "contractName": "InterestModel",
  "sourceName": "contracts/InterestModel.sol",
  "abi": [
    {
      "inputs": [
        {
          "internalType": "address",
          "name": "accessController_",
          "type": "address"
        }
      ],
      "stateMutability": "nonpayable",
      "type": "constructor"
    },
    {
      "anonymous": false,
      "inputs": [
        {
          "indexed": true,
          "internalType": "address",
          "name": "asset",
          "type": "address"
        },
        {
          "indexed": true,
          "internalType": "uint256",
          "name": "lockDuration",
          "type": "uint256"
        },
        {
          "indexed": false,
          "internalType": "uint256",
          "name": "aprBps",
          "type": "uint256"
        }
      ],
      "name": "RateUpdated",
      "type": "event"
    },
    {
      "inputs": [],
      "name": "MAX_RATE_BPS",
      "outputs": [
        {
          "internalType": "uint256",
          "name": "",
          "type": "uint256"
        }
      ],
      "stateMutability": "view",
      "type": "function"
    },
    {
      "inputs": [],
      "name": "accessController",
      "outputs": [
        {
          "internalType": "contract AccessController",
          "name": "",
          "type": "address"
        }
      ],
      "stateMutability": "view",
      "type": "function"
    },
    {
      "inputs": [
        {
          "internalType": "address",
          "name": "asset",
          "type": "address"
        },
        {
          "internalType": "uint256",
          "name": "lockDuration",
          "type": "uint256"
        }
      ],
      "name": "getRateBps",
      "outputs": [
        {
          "internalType": "uint256",
          "name": "aprBps",
          "type": "uint256"
        }
      ],
      "stateMutability": "view",
      "type": "function"
    },
    {
      "inputs": [
        {
          "internalType": "address",
          "name": "asset",
          "type": "address"
        },
        {
          "internalType": "uint256",
          "name": "lockDuration",
          "type": "uint256"
        },
        {
          "internalType": "uint256",
          "name": "aprBps",
          "type": "uint256"
        }
      ],
      "name": "setRateBps",
      "outputs": [],
      "stateMutability": "nonpayable",
      "type": "function"
    }
  ],
  "bytecode": "0x60a060405234801561001057600080fd5b506040516106d73803806106d783398101604081905261002f916100a8565b6001600160a01b0381166100975760405162461bcd60e51b815260206004820152602560248201527f496e7465726573744d6f64656c3a207a65726f2061636365737320636f6e747260448201526437b63632b960d91b606482015260840160405180910390fd5b6001600160a01b03166080526100d8565b6000602082840312156100ba57600080fd5b81516001600160a01b03811681146100d157600080fd5b9392505050565b6080516105c961010e6000396000818160850152818161015b0152818161018a0152818161027801526102a701526105c96000f3fe608060405234801561001057600080fd5b506004361061004c5760003560e01c80638b8acafe14610051578063b0c0c26414610077578063bc43cbaf14610080578063c29f5ca8146100bf575b600080fd5b61006461005f3660046104f4565b6100d4565b6040519081526020015b60405180910390f35b61006461138881565b6100a77f000000000000000000000000000000000000000000000000000000000000000081565b6040516001600160a01b03909116815260200161006e565b6100d26100cd36600461051e565b610159565b005b6001600160a01b038216600090815260208181526040808320848452909152902054806101535760405162461bcd60e51b815260206004820152602260248201527f496e7465726573744d6f64656c3a2072617465206e6f7420636f6e6669677572604482015261195960f21b60648201526084015b60405180910390fd5b92915050565b7f00000000000000000000000000000000000000000000000000000000000000006001600160a01b03166391d148547f00000000000000000000000000000000000000000000000000000000000000006001600160a01b031663b9160c306040518163ffffffff1660e01b8152600401602060405180830381865afa1580156101e6573d6000803e3d6000fd5b505050506040513d601f19601f8201168201806040525081019061020a9190610551565b6040516001600160e01b031960e084901b1681526004810191909152336024820152604401602060405180830381865afa15801561024c573d6000803e3d6000fd5b505050506040513d601f19601f82011682018060405250810190610270919061056a565b8061038d57507f00000000000000000000000000000000000000000000000000000000000000006001600160a01b03166391d148547f00000000000000000000000000000000000000000000000000000000000000006001600160a01b03166375b238fc6040518163ffffffff1660e01b8152600401602060405180830381865afa158015610303573d6000803e3d6000fd5b505050506040513d601f19601f820116820180604052508101906103279190610551565b6040516001600160e01b031960e084901b1681526004810191909152336024820152604401602060405180830381865afa158015610369573d6000803e3d6000fd5b505050506040513d601f19601f8201168201806040525081019061038d919061056a565b6103d95760405162461bcd60e51b815260206004820152601d60248201527f496e7465726573744d6f64656c3a206e6f7420617574686f72697a6564000000604482015260640161014a565b600082116104295760405162461bcd60e51b815260206004820152601f60248201527f496e7465726573744d6f64656c3a20696e76616c6964206475726174696f6e00604482015260640161014a565b61138881111561047b5760405162461bcd60e51b815260206004820152601c60248201527f496e7465726573744d6f64656c3a207261746520746f6f206869676800000000604482015260640161014a565b6001600160a01b03831660008181526020818152604080832086845282529182902084905590518381528492917f6778305c6589874c7b48651fd6414793c4ac2fdf49403e5270649e087046a83b910160405180910390a3505050565b80356001600160a01b03811681146104ef57600080fd5b919050565b6000806040838503121561050757600080fd5b610510836104d8565b946020939093013593505050565b60008060006060848603121561053357600080fd5b61053c846104d8565b95602085013595506040909401359392505050565b60006020828403121561056357600080fd5b5051919050565b60006020828403121561057c57600080fd5b8151801515811461058c57600080fd5b939250505056fea2646970667358221220fbace5aeeb5bdb633724d52ab24bc2d2e7a76023ef5db38a339f03104e9d7ece64736f6c63430008180033",
  "linkReferences": {},
  "deployedLinkReferences": {}
}