{
  "_format": "hh-sol-artifact-1",
  "contractName": "Treasury",
  "sourceName": "contracts/Treasury.sol",
  "abi": [
    {
      "inputs": [
        {
          "internalType": "address",
          "name": "accessController_",
          "type": "address"
        }
      ],
      "stateMutability": "nonpayable",
      "type": "constructor"
    },
    {
      "anonymous": false,
      "inputs": [
        {
          "indexed": true,
          "internalType": "address",
          "name": "asset",
          "type": "address"
        },
        {
          "indexed": false,
          "internalType": "uint256",
          "name": "amount",
          "type": "uint256"
        },
        {
          "indexed": false,
          "internalType": "uint256",
          "name": "totalLiability",
          "type": "uint256"
        }
      ],
      "name": "LiabilityDecreased",
      "type": "event"
    },
    {
      "anonymous": false,
      "inputs": [
        {
          "indexed": true,
          "internalType": "address",
          "name": "asset",
          "type": "address"
        },
        {
          "indexed": false,
          "internalType": "uint256",
          "name": "amount",
          "type": "uint256"
        },
        {
          "indexed": false,
          "internalType": "uint256",
          "name": "totalLiability",
          "type": "uint256"
        }
      ],
      "name": "LiabilityIncreased",
      "type": "event"
    },
    {
      "anonymous": false,
      "inputs": [
        {
          "indexed": false,
          "internalType": "address",
          "name": "account",
          "type": "address"
        }
      ],
      "name": "Paused",
      "type": "event"
    },
    {
      "anonymous": false,
      "inputs": [
        {
          "indexed": true,
          "internalType": "address",
          "name": "asset",
          "type": "address"
        },
        {
          "indexed": true,
          "internalType": "address",
          "name": "to",
          "type": "address"
        },
        {
          "indexed": false,
          "internalType": "uint256",
          "name": "amount",
          "type": "uint256"
        }
      ],
      "name": "Payout",
      "type": "event"
    },
    {
      "anonymous": false,
      "inputs": [
        {
          "indexed": true,
          "internalType": "address",
          "name": "asset",
          "type": "address"
        },
        {
          "indexed": true,
          "internalType": "address",
          "name": "to",
          "type": "address"
        },
        {
          "indexed": false,
          "internalType": "uint256",
          "name": "amount",
          "type": "uint256"
        }
      ],
      "name": "SurplusWithdrawn",
      "type": "event"
    },
    {
      "anonymous": false,
      "inputs": [
        {
          "indexed": true,
          "internalType": "address",
          "name": "asset",
          "type": "address"
        },
        {
          "indexed": true,
          "internalType": "address",
          "name": "from",
          "type": "address"
        },
        {
          "indexed": false,
          "internalType": "uint256",
          "name": "amount",
          "type": "uint256"
        }
      ],
      "name": "TokenFunded",
      "type": "event"
    },
    {
      "anonymous": false,
      "inputs": [
        {
          "indexed": false,
          "internalType": "address",
          "name": "account",
          "type": "address"
        }
      ],
      "name": "Unpaused",
      "type": "event"
    },
    {
      "inputs": [],
      "name": "accessController",
      "outputs": [
        {
          "internalType": "contract AccessController",
          "name": "",
          "type": "address"
        }
      ],
      "stateMutability": "view",
      "type": "function"
    },
    {
      "inputs": [
        {
          "internalType": "address",
          "name": "asset",
          "type": "address"
        }
      ],
      "name": "assetBalance",
      "outputs": [
        {
          "internalType": "uint256",
          "name": "",
          "type": "uint256"
        }
      ],
      "stateMutability": "view",
      "type": "function"
    },
    {
      "inputs": [
        {
          "internalType": "address",
          "name": "asset",
          "type": "address"
        }
      ],
      "name": "availableReserves",
      "outputs": [
        {
          "internalType": "uint256",
          "name": "",
          "type": "uint256"
        }
      ],
      "stateMutability": "view",
      "type": "function"
    },
    {
      "inputs": [
        {
          "internalType": "address",
          "name": "asset",
          "type": "address"
        },
        {
          "internalType": "uint256",
          "name": "amount",
          "type": "uint256"
        }
      ],
      "name": "decreaseLiability",
      "outputs": [],
      "stateMutability": "nonpayable",
      "type": "function"
    },
    {
      "inputs": [
        {
          "internalType": "address",
          "name": "asset",
          "type": "address"
        },
        {
          "internalType": "uint256",
          "name": "amount",
          "type": "uint256"
        }
      ],
      "name": "fundToken",
      "outputs": [],
      "stateMutability": "nonpayable",
      "type": "function"
    },
    {
      "inputs": [
        {
          "internalType": "address",
          "name": "asset",
          "type": "address"
        },
        {
          "internalType": "uint256",
          "name": "amount",
          "type": "uint256"
        }
      ],
      "name": "increaseLiability",
      "outputs": [],
      "stateMutability": "nonpayable",
      "type": "function"
    },
    {
      "inputs": [
        {
          "internalType": "address",
          "name": "",
          "type": "address"
        }
      ],
      "name": "liabilities",
      "outputs": [
        {
          "internalType": "uint256",
          "name": "",
          "type": "uint256"
        }
      ],
      "stateMutability": "view",
      "type": "function"
    },
    {
      "inputs": [],
      "name": "pause",
      "outputs": [],
      "stateMutability": "nonpayable",
      "type": "function"
    },
    {
      "inputs": [],
      "name": "paused",
      "outputs": [
        {
          "internalType": "bool",
          "name": "",
          "type": "bool"
        }
      ],
      "stateMutability": "view",
      "type": "function"
    },
    {
      "inputs": [
        {
          "internalType": "address",
          "name": "asset",
          "type": "address"
        },
        {
          "internalType": "address",
          "name": "to",
          "type": "address"
        },
        {
          "internalType": "uint256",
          "name": "amount",
          "type": "uint256"
        }
      ],
      "name": "payout",
      "outputs": [],
      "stateMutability": "nonpayable",
      "type": "function"
    },
    {
      "inputs": [],
      "name": "unpause",
      "outputs": [],
      "stateMutability": "nonpayable",
      "type": "function"
    },
    {
      "inputs": [
        {
          "internalType": "address",
          "name": "asset",
          "type": "address"
        },
        {
          "internalType": "address",
          "name": "to",
          "type": "address"
        },
        {
          "internalType": "uint256",
          "name": "amount",
          "type": "uint256"
        }
      ],
      "name": "withdrawSurplus",
      "outputs": [],
      "stateMutability": "nonpayable",
      "type": "function"
    },
    {
      "stateMutability": "payable",
      "type": "receive"
    }
  ],
  "bytecode": "0x60a060405234801561001057600080fd5b50604051611c76380380611c7683398101604081905261002f916100a9565b60016000819055805460ff191690556001600160a01b0381166100985760405162461bcd60e51b815260206004820181905260248201527f54726561737572793a207a65726f2061636365737320636f6e74726f6c6c6572604482015260640160405180910390fd5b6001600160a01b03166080526100d9565b6000602082840312156100bb57600080fd5b81516001600160a01b03811681146100d257600080fd5b9392505050565b608051611b04610172600039600081816101d801528181610274015281816102a3015281816105b0015281816105df015281816106cd015281816106fc01528181610831015281816108600152818161094e0152818161097d01528181610ab001528181610adf01528181610cee01528181610d1d01528181610e0b01528181610e3a0152818161114f015261117e0152611b046000f3fe6080604052600436106100ab5760003560e01c8063b516fd9811610064578063b516fd9814610186578063b9ff644a146101a6578063bc43cbaf146101c6578063c5160ddf14610212578063cd88e55814610232578063d411b8b51461025257600080fd5b806320f801d4146100b75780633f4ba83a146100d95780635c975abb146100ee5780638456cb59146101165780639c23c86a1461012b578063b01083e21461014b57600080fd5b366100b257005b600080fd5b3480156100c357600080fd5b506100d76100d23660046118fe565b610272565b005b3480156100e557600080fd5b506100d76105ae565b3480156100fa57600080fd5b5060015460ff1660405190151581526020015b60405180910390f35b34801561012257600080fd5b506100d761082f565b34801561013757600080fd5b506100d761014636600461193a565b610aae565b34801561015757600080fd5b50610178610166366004611964565b60026020526000908152604090205481565b60405190815260200161010d565b34801561019257600080fd5b506100d76101a13660046118fe565b610cec565b3480156101b257600080fd5b506100d76101c136600461193a565b61114d565b3480156101d257600080fd5b506101fa7f000000000000000000000000000000000000000000000000000000000000000081565b6040516001600160a01b03909116815260200161010d565b34801561021e57600080fd5b5061017861022d366004611964565b61131b565b34801561023e57600080fd5b5061017861024d366004611964565b611366565b34801561025e57600080fd5b506100d761026d36600461193a565b6113eb565b7f00000000000000000000000000000000000000000000000000000000000000006001600160a01b03166391d148547f00000000000000000000000000000000000000000000000000000000000000006001600160a01b031663ec87621c6040518163ffffffff1660e01b8152600401602060405180830381865afa1580156102ff573d6000803e3d6000fd5b505050506040513d601f19601f820116820180604052508101906103239190611986565b6040516001600160e01b031960e084901b1681526004810191909152336024820152604401602060405180830381865afa158015610365573d6000803e3d6000fd5b505050506040513d601f19601f82011682018060405250810190610389919061199f565b6103ae5760405162461bcd60e51b81526004016103a5906119c1565b60405180910390fd5b6103b66114d4565b6103be61152d565b6001600160a01b03821661040f5760405162461bcd60e51b8152602060048201526018602482015277151c99585cdd5c9e4e881e995c9bc81c9958da5c1a595b9d60421b60448201526064016103a5565b6000811161042f5760405162461bcd60e51b81526004016103a5906119f0565b8061043984611366565b10156104875760405162461bcd60e51b815260206004820152601e60248201527f54726561737572793a20696e73756666696369656e742062616c616e6365000060448201526064016103a5565b6001600160a01b03831661053e576000826001600160a01b03168260405160006040518083038185875af1925050503d80600081146104e2576040519150601f19603f3d011682016040523d82523d6000602084013e6104e7565b606091505b50509050806105385760405162461bcd60e51b815260206004820152601d60248201527f54726561737572793a20455448207472616e73666572206661696c656400000060448201526064016103a5565b50610552565b6105526001600160a01b0384168383611573565b816001600160a01b0316836001600160a01b03167febe7adb4feddf2afa5de463169fdc706254a55c9cf2b930ac84bb49e28cfe6bb8360405161059791815260200190565b60405180910390a36105a96001600055565b505050565b7f00000000000000000000000000000000000000000000000000000000000000006001600160a01b03166391d148547f00000000000000000000000000000000000000000000000000000000000000006001600160a01b031663e63ab1e96040518163ffffffff1660e01b8152600401602060405180830381865afa15801561063b573d6000803e3d6000fd5b505050506040513d601f19601f8201168201806040525081019061065f9190611986565b6040516001600160e01b031960e084901b1681526004810191909152336024820152604401602060405180830381865afa1580156106a1573d6000803e3d6000fd5b505050506040513d601f19601f820116820180604052508101906106c5919061199f565b806107e257507f00000000000000000000000000000000000000000000000000000000000000006001600160a01b03166391d148547f00000000000000000000000000000000000000000000000000000000000000006001600160a01b03166375b238fc6040518163ffffffff1660e01b8152600401602060405180830381865afa158015610758573d6000803e3d6000fd5b505050506040513d601f19601f8201168201806040525081019061077c9190611986565b6040516001600160e01b031960e084901b1681526004810191909152336024820152604401602060405180830381865afa1580156107be573d6000803e3d6000fd5b505050506040513d601f19601f820116820180604052508101906107e2919061199f565b6108255760405162461bcd60e51b81526020600482015260146024820152732a3932b0b9bab93c9d103737ba103830bab9b2b960611b60448201526064016103a5565b61082d6115d6565b565b7f00000000000000000000000000000000000000000000000000000000000000006001600160a01b03166391d148547f00000000000000000000000000000000000000000000000000000000000000006001600160a01b031663e63ab1e96040518163ffffffff1660e01b8152600401602060405180830381865afa1580156108bc573d6000803e3d6000fd5b505050506040513d601f19601f820116820180604052508101906108e09190611986565b6040516001600160e01b031960e084901b1681526004810191909152336024820152604401602060405180830381865afa158015610922573d6000803e3d6000fd5b505050506040513d601f19601f82011682018060405250810190610946919061199f565b80610a6357507f00000000000000000000000000000000000000000000000000000000000000006001600160a01b03166391d148547f00000000000000000000000000000000000000000000000000000000000000006001600160a01b03166375b238fc6040518163ffffffff1660e01b8152600401602060405180830381865afa1580156109d9573d6000803e3d6000fd5b505050506040513d601f19601f820116820180604052508101906109fd9190611986565b6040516001600160e01b031960e084901b1681526004810191909152336024820152604401602060405180830381865afa158015610a3f573d6000803e3d6000fd5b505050506040513d601f19601f82011682018060405250810190610a63919061199f565b610aa65760405162461bcd60e51b81526020600482015260146024820152732a3932b0b9bab93c9d103737ba103830bab9b2b960611b60448201526064016103a5565b61082d611628565b7f00000000000000000000000000000000000000000000000000000000000000006001600160a01b03166391d148547f00000000000000000000000000000000000000000000000000000000000000006001600160a01b031663ec87621c6040518163ffffffff1660e01b8152600401602060405180830381865afa158015610b3b573d6000803e3d6000fd5b505050506040513d601f19601f82011682018060405250810190610b5f9190611986565b6040516001600160e01b031960e084901b1681526004810191909152336024820152604401602060405180830381865afa158015610ba1573d6000803e3d6000fd5b505050506040513d601f19601f82011682018060405250810190610bc5919061199f565b610be15760405162461bcd60e51b81526004016103a5906119c1565b60008111610c015760405162461bcd60e51b81526004016103a5906119f0565b6001600160a01b038216600090815260026020526040902054811115610c695760405162461bcd60e51b815260206004820152601d60248201527f54726561737572793a206c696162696c69747920756e646572666c6f7700000060448201526064016103a5565b6001600160a01b03821660009081526002602052604081208054839290610c91908490611a35565b90915550506001600160a01b038216600081815260026020908152604091829020548251858152918201527f224878be9228090cad61b0bb8224720a027b652f90c6526ed88463bf4edbdd5491015b60405180910390a25050565b7f00000000000000000000000000000000000000000000000000000000000000006001600160a01b03166391d148547f00000000000000000000000000000000000000000000000000000000000000006001600160a01b031663ebdf690f6040518163ffffffff1660e01b8152600401602060405180830381865afa158015610d79573d6000803e3d6000fd5b505050506040513d601f19601f82011682018060405250810190610d9d9190611986565b6040516001600160e01b031960e084901b1681526004810191909152336024820152604401602060405180830381865afa158015610ddf573d6000803e3d6000fd5b505050506040513d601f19601f82011682018060405250810190610e03919061199f565b80610f2057507f00000000000000000000000000000000000000000000000000000000000000006001600160a01b03166391d148547f00000000000000000000000000000000000000000000000000000000000000006001600160a01b03166375b238fc6040518163ffffffff1660e01b8152600401602060405180830381865afa158015610e96573d6000803e3d6000fd5b505050506040513d601f19601f82011682018060405250810190610eba9190611986565b6040516001600160e01b031960e084901b1681526004810191909152336024820152604401602060405180830381865afa158015610efc573d6000803e3d6000fd5b505050506040513d601f19601f82011682018060405250810190610f20919061199f565b610f6c5760405162461bcd60e51b815260206004820152601e60248201527f54726561737572793a206e6f74207472656173757279206d616e61676572000060448201526064016103a5565b610f746114d4565b6001600160a01b038216610fc55760405162461bcd60e51b8152602060048201526018602482015277151c99585cdd5c9e4e881e995c9bc81c9958da5c1a595b9d60421b60448201526064016103a5565b60008111610fe55760405162461bcd60e51b81526004016103a5906119f0565b610fee8361131b565b81111561103d5760405162461bcd60e51b815260206004820152601a60248201527f54726561737572793a206578636565647320726573657276657300000000000060448201526064016103a5565b6001600160a01b0383166110f4576000826001600160a01b03168260405160006040518083038185875af1925050503d8060008114611098576040519150601f19603f3d011682016040523d82523d6000602084013e61109d565b606091505b50509050806110ee5760405162461bcd60e51b815260206004820152601d60248201527f54726561737572793a20455448207472616e73666572206661696c656400000060448201526064016103a5565b50611108565b6111086001600160a01b0384168383611573565b816001600160a01b0316836001600160a01b03167f35325b58b52583a05e1085a13763f4b3400154b793dedbac7371ee26a89400438360405161059791815260200190565b7f00000000000000000000000000000000000000000000000000000000000000006001600160a01b03166391d148547f00000000000000000000000000000000000000000000000000000000000000006001600160a01b031663ec87621c6040518163ffffffff1660e01b8152600401602060405180830381865afa1580156111da573d6000803e3d6000fd5b505050506040513d601f19601f820116820180604052508101906111fe9190611986565b6040516001600160e01b031960e084901b1681526004810191909152336024820152604401602060405180830381865afa158015611240573d6000803e3d6000fd5b505050506040513d601f19601f82011682018060405250810190611264919061199f565b6112805760405162461bcd60e51b81526004016103a5906119c1565b600081116112a05760405162461bcd60e51b81526004016103a5906119f0565b6001600160a01b038216600090815260026020526040812080548392906112c8908490611a48565b90915550506001600160a01b038216600081815260026020908152604091829020548251858152918201527f91a2dec0b3ef84767775237e9cf7b84dc48188b31961e10aaf9d72811f4947b99101610ce0565b60008061132783611366565b6001600160a01b038416600090815260026020526040902054909150808211611354575060009392505050565b61135e8183611a35565b949350505050565b60006001600160a01b03821661137d575047919050565b6040516370a0823160e01b81523060048201526001600160a01b038316906370a0823190602401602060405180830381865afa1580156113c1573d6000803e3d6000fd5b505050506040513d601f19601f820116820180604052508101906113e59190611986565b92915050565b6113f36114d4565b6113fb61152d565b6001600160a01b0382166114515760405162461bcd60e51b815260206004820152601760248201527f54726561737572793a20696e76616c696420746f6b656e00000000000000000060448201526064016103a5565b600081116114715760405162461bcd60e51b81526004016103a5906119f0565b6114866001600160a01b038316333084611663565b60405181815233906001600160a01b038416907f4d88d3c273ea0179feb040cbfe8330a22cff7f8c4123a67030c22c89733fdba29060200160405180910390a36114d06001600055565b5050565b6002600054036115265760405162461bcd60e51b815260206004820152601f60248201527f5265656e7472616e637947756172643a207265656e7472616e742063616c6c0060448201526064016103a5565b6002600055565b60015460ff161561082d5760405162461bcd60e51b815260206004820152601060248201526f14185d5cd8589b194e881c185d5cd95960821b60448201526064016103a5565b6040516001600160a01b0383166024820152604481018290526105a990849063a9059cbb60e01b906064015b60408051601f198184030181529190526020810180516001600160e01b03166001600160e01b0319909316929092179091526116a1565b6115de611776565b6001805460ff191690557f5db9ee0a495bf2e6ff9c91a7834c1ba4fdd244a5e8aa4e537bd38aeae4b073aa335b6040516001600160a01b03909116815260200160405180910390a1565b61163061152d565b6001805460ff1916811790557f62e78cea01bee320cd4e420270b5ea74000d11b0c9f74754ebdbfc544b05a2583361160b565b6040516001600160a01b038085166024830152831660448201526064810182905261169b9085906323b872dd60e01b9060840161159f565b50505050565b60006116f6826040518060400160405280602081526020017f5361666545524332303a206c6f772d6c6576656c2063616c6c206661696c6564815250856001600160a01b03166117bf9092919063ffffffff16565b9050805160001480611717575080806020019051810190611717919061199f565b6105a95760405162461bcd60e51b815260206004820152602a60248201527f5361666545524332303a204552433230206f7065726174696f6e20646964206e6044820152691bdd081cdd58d8d9595960b21b60648201526084016103a5565b60015460ff1661082d5760405162461bcd60e51b815260206004820152601460248201527314185d5cd8589b194e881b9bdd081c185d5cd95960621b60448201526064016103a5565b606061135e848460008585600080866001600160a01b031685876040516117e69190611a7f565b60006040518083038185875af1925050503d8060008114611823576040519150601f19603f3d011682016040523d82523d6000602084013e611828565b606091505b509150915061183987838387611844565b979650505050505050565b606083156118b35782516000036118ac576001600160a01b0385163b6118ac5760405162461bcd60e51b815260206004820152601d60248201527f416464726573733a2063616c6c20746f206e6f6e2d636f6e747261637400000060448201526064016103a5565b508161135e565b61135e83838151156118c85781518083602001fd5b8060405162461bcd60e51b81526004016103a59190611a9b565b80356001600160a01b03811681146118f957600080fd5b919050565b60008060006060848603121561191357600080fd5b61191c846118e2565b925061192a602085016118e2565b9150604084013590509250925092565b6000806040838503121561194d57600080fd5b611956836118e2565b946020939093013593505050565b60006020828403121561197657600080fd5b61197f826118e2565b9392505050565b60006020828403121561199857600080fd5b5051919050565b6000602082840312156119b157600080fd5b8151801515811461197f57600080fd5b6020808252601590820152742a3932b0b9bab93c9d103737ba1036b0b730b3b2b960591b604082015260600190565b602080825260159082015274151c99585cdd5c9e4e881e995c9bc8185b5bdd5b9d605a1b604082015260600190565b634e487b7160e01b600052601160045260246000fd5b818103818111156113e5576113e5611a1f565b808201808211156113e5576113e5611a1f565b60005b83811015611a76578181015183820152602001611a5e565b50506000910152565b60008251611a91818460208701611a5b565b9190910192915050565b6020815260008251806020840152611aba816040850160208701611a5b565b601f01601f1916919091016040019291505056fea264697066735822122090a04eabb0f7b6c6a0af30a4d7035eb77719518944d7fef50d032c1eb6bdab2664736f6c63430008180033",
  "linkReferences": {},
  "deployedLinkReferences": {}
}