{
  "_format": "hh-sol-artifact-1",
  "contractName": "AccessController",
  "sourceName": "contracts/AccessController.sol",
  "abi": [
    {
      "inputs": [
        {
          "internalType": "address",
          "name": "initialAdmin",
          "type": "address"
        }
      ],
      "stateMutability": "nonpayable",
      "type": "constructor"
    },
    {
      "anonymous": false,
      "inputs": [
        {
          "indexed": true,
          "internalType": "bytes32",
          "name": "role",
          "type": "bytes32"
        },
        {
          "indexed": true,
          "internalType": "bytes32",
          "name": "previousAdminRole",
          "type": "bytes32"
        },
        {
          "indexed": true,
          "internalType": "bytes32",
          "name": "newAdminRole",
          "type": "bytes32"
        }
      ],
      "name": "RoleAdminChanged",
      "type": "event"
    },
    {
      "anonymous": false,
      "inputs": [
        {
          "indexed": true,
          "internalType": "bytes32",
          "name": "role",
          "type": "bytes32"
        },
        {
          "indexed": true,
          "internalType": "address",
          "name": "account",
          "type": "address"
        },
        {
          "indexed": true,
          "internalType": "address",
          "name": "sender",
          "type": "address"
        }
      ],
      "name": "RoleGranted",
      "type": "event"
    },
    {
      "anonymous": false,
      "inputs": [
        {
          "indexed": true,
          "internalType": "bytes32",
          "name": "role",
          "type": "bytes32"
        },
        {
          "indexed": true,
          "internalType": "address",
          "name": "account",
          "type": "address"
        },
        {
          "indexed": true,
          "internalType": "address",
          "name": "sender",
          "type": "address"
        }
      ],
      "name": "RoleRevoked",
      "type": "event"
    },
    {
      "inputs": [],
      "name": "ADMIN_ROLE",
      "outputs": [
        {
          "internalType": "bytes32",
          "name": "",
          "type": "bytes32"
        }
      ],
      "stateMutability": "view",
      "type": "function"
    },
    {
      "inputs": [],
      "name": "AUDITOR_ROLE",
      "outputs": [
        {
          "internalType": "bytes32",
          "name": "",
          "type": "bytes32"
        }
      ],
      "stateMutability": "view",
      "type": "function"
    },
    {
      "inputs": [],
      "name": "DEFAULT_ADMIN_ROLE",
      "outputs": [
        {
          "internalType": "bytes32",
          "name": "",
          "type": "bytes32"
        }
      ],
      "stateMutability": "view",
      "type": "function"
    },
    {
      "inputs": [],
      "name": "MANAGER_ROLE",
      "outputs": [
        {
          "internalType": "bytes32",
          "name": "",
          "type": "bytes32"
        }
      ],
      "stateMutability": "view",
      "type": "function"
    },
    {
      "inputs": [],
      "name": "PAUSER_ROLE",
      "outputs": [
        {
          "internalType": "bytes32",
          "name": "",
          "type": "bytes32"
        }
      ],
      "stateMutability": "view",
      "type": "function"
    },
    {
      "inputs": [],
      "name": "RATE_SETTER_ROLE",
      "outputs": [
        {
          "internalType": "bytes32",
          "name": "",
          "type": "bytes32"
        }
      ],
      "stateMutability": "view",
      "type": "function"
    },
    {
      "inputs": [],
      "name": "TREASURY_MANAGER_ROLE",
      "outputs": [
        {
          "internalType": "bytes32",
          "name": "",
          "type": "bytes32"
        }
      ],
      "stateMutability": "view",
      "type": "function"
    },
    {
      "inputs": [],
      "name": "UPGRADER_ROLE",
      "outputs": [
        {
          "internalType": "bytes32",
          "name": "",
          "type": "bytes32"
        }
      ],
      "stateMutability": "view",
      "type": "function"
    },
    {
      "inputs": [
        {
          "internalType": "bytes32",
          "name": "role",
          "type": "bytes32"
        }
      ],
      "name": "getRoleAdmin",
      "outputs": [
        {
          "internalType": "bytes32",
          "name": "",
          "type": "bytes32"
        }
      ],
      "stateMutability": "view",
      "type": "function"
    },
    {
      "inputs": [
        {
          "internalType": "bytes32",
          "name": "role",
          "type": "bytes32"
        },
        {
          "internalType": "address",
          "name": "account",
          "type": "address"
        }
      ],
      "name": "grantRole",
      "outputs": [],
      "stateMutability": "nonpayable",
      "type": "function"
    },
    {
      "inputs": [
        {
          "internalType": "bytes32",
          "name": "role",
          "type": "bytes32"
        },
        {
          "internalType": "address",
          "name": "account",
          "type": "address"
        }
      ],
      "name": "hasRole",
      "outputs": [
        {
          "internalType": "bool",
          "name": "",
          "type": "bool"
        }
      ],
      "stateMutability": "view",
      "type": "function"
    },
    {
      "inputs": [
        {
          "internalType": "bytes32",
          "name": "role",
          "type": "bytes32"
        },
        {
          "internalType": "address",
          "name": "account",
          "type": "address"
        }
      ],
      "name": "renounceRole",
      "outputs": [],
      "stateMutability": "nonpayable",
      "type": "function"
    },
    {
      "inputs": [
        {
          "internalType": "bytes32",
          "name": "role",
          "type": "bytes32"
        },
        {
          "internalType": "address",
          "name": "account",
          "type": "address"
        }
      ],
      "name": "revokeRole",
      "outputs": [],
      "stateMutability": "nonpayable",
      "type": "function"
    },
    {
      "inputs": [
        {
          "internalType": "bytes4",
          "name": "interfaceId",
          "type": "bytes4"
        }
      ],
      "name": "supportsInterface",
      "outputs": [
        {
          "internalType": "bool",
          "name": "",
          "type": "bool"
        }
      ],
      "stateMutability": "view",
      "type": "function"
    }
  ],
  "bytecode": "0x608060405234801561001057600080fd5b50604051610b87380380610b8783398101604081905261002f9161025f565b6001600160a01b0381166100895760405162461bcd60e51b815260206004820152601c60248201527f416363657373436f6e74726f6c6c65723a207a65726f2061646d696e00000000604482015260640160405180910390fd5b6100946000826101c0565b6100be7fa49807205ce4d355092ef5a8a18f56e8913cf4a201fbe287825b095693c21775826101c0565b6100e87fede9dcdb0ce99dc7cec9c7be9246ad08b37853683ad91569c187b647ddf5e21c826101c0565b6101127f59a1c48e5837ad7a7f3dcedcbe129bf3249ec4fbf651fd4f5e2600ead39fe2f5826101c0565b61013c7f65d7a28e3265b37a6474929f336521b332c1681b933f6cb9f3376673440d862a826101c0565b6101667f189ab7a9244df0848122154315af71fe140f3db0fe014031783b0946b8c9d2e3826101c0565b6101907f241ecf16d79d0f8dbfb92cbc07fe17840425976cf0667f022fe9877caa831b08826101c0565b6101ba7f71cf91ec47860248170f85b42d74f92cb733e7fa0012c4ada3d85e11b64cb194826101c0565b5061028f565b6000828152602081815260408083206001600160a01b038516845290915290205460ff1661025b576000828152602081815260408083206001600160a01b03851684529091529020805460ff1916600117905561021a3390565b6001600160a01b0316816001600160a01b0316837f2f8788117e7eff1d82e926ec794901d17c78024a50270940304540a733656f0d60405160405180910390a45b5050565b60006020828403121561027157600080fd5b81516001600160a01b038116811461028857600080fd5b9392505050565b6108e98061029e6000396000f3fe608060405234801561001057600080fd5b50600436106100ea5760003560e01c8063a217fddf1161008c578063e63ab1e911610066578063e63ab1e914610213578063ebdf690f1461023a578063ec87621c14610261578063f72c0d8b1461028857600080fd5b8063a217fddf146101d1578063b9160c30146101d9578063d547741f1461020057600080fd5b806336568abe116100c857806336568abe1461015d5780636e1d616e1461017057806375b238fc1461019757806391d14854146101be57600080fd5b806301ffc9a7146100ef578063248a9ca3146101175780632f2ff15d14610148575b600080fd5b6101026100fd3660046106e5565b6102af565b60405190151581526020015b60405180910390f35b61013a61012536600461070f565b60009081526020819052604090206001015490565b60405190815260200161010e565b61015b610156366004610728565b6102e6565b005b61015b61016b366004610728565b610310565b61013a7f59a1c48e5837ad7a7f3dcedcbe129bf3249ec4fbf651fd4f5e2600ead39fe2f581565b61013a7fa49807205ce4d355092ef5a8a18f56e8913cf4a201fbe287825b095693c2177581565b6101026101cc366004610728565b610393565b61013a600081565b61013a7f71cf91ec47860248170f85b42d74f92cb733e7fa0012c4ada3d85e11b64cb19481565b61015b61020e366004610728565b6103bc565b61013a7f65d7a28e3265b37a6474929f336521b332c1681b933f6cb9f3376673440d862a81565b61013a7fede9dcdb0ce99dc7cec9c7be9246ad08b37853683ad91569c187b647ddf5e21c81565b61013a7f241ecf16d79d0f8dbfb92cbc07fe17840425976cf0667f022fe9877caa831b0881565b61013a7f189ab7a9244df0848122154315af71fe140f3db0fe014031783b0946b8c9d2e381565b60006001600160e01b03198216637965db0b60e01b14806102e057506301ffc9a760e01b6001600160e01b03198316145b92915050565b600082815260208190526040902060010154610301816103e1565b61030b83836103ee565b505050565b6001600160a01b03811633146103855760405162461bcd60e51b815260206004820152602f60248201527f416363657373436f6e74726f6c3a2063616e206f6e6c792072656e6f756e636560448201526e103937b632b9903337b91039b2b63360891b60648201526084015b60405180910390fd5b61038f8282610472565b5050565b6000918252602082815260408084206001600160a01b0393909316845291905290205460ff1690565b6000828152602081905260409020600101546103d7816103e1565b61030b8383610472565b6103eb81336104d7565b50565b6103f88282610393565b61038f576000828152602081815260408083206001600160a01b03851684529091529020805460ff1916600117905561042e3390565b6001600160a01b0316816001600160a01b0316837f2f8788117e7eff1d82e926ec794901d17c78024a50270940304540a733656f0d60405160405180910390a45050565b61047c8282610393565b1561038f576000828152602081815260408083206001600160a01b0385168085529252808320805460ff1916905551339285917ff6391f5c32d9c69d2a47ea670b442974b53935d1edc7fd64eb21e047a839171b9190a45050565b6104e18282610393565b61038f576104ee81610530565b6104f9836020610542565b60405160200161050a929190610788565b60408051601f198184030181529082905262461bcd60e51b825261037c916004016107fd565b60606102e06001600160a01b03831660145b60606000610551836002610846565b61055c90600261085d565b67ffffffffffffffff81111561057457610574610870565b6040519080825280601f01601f19166020018201604052801561059e576020820181803683370190505b509050600360fc1b816000815181106105b9576105b9610886565b60200101906001600160f81b031916908160001a905350600f60fb1b816001815181106105e8576105e8610886565b60200101906001600160f81b031916908160001a905350600061060c846002610846565b61061790600161085d565b90505b600181111561068f576f181899199a1a9b1b9c1cb0b131b232b360811b85600f166010811061064b5761064b610886565b1a60f81b82828151811061066157610661610886565b60200101906001600160f81b031916908160001a90535060049490941c936106888161089c565b905061061a565b5083156106de5760405162461bcd60e51b815260206004820181905260248201527f537472696e67733a20686578206c656e67746820696e73756666696369656e74604482015260640161037c565b9392505050565b6000602082840312156106f757600080fd5b81356001600160e01b0319811681146106de57600080fd5b60006020828403121561072157600080fd5b5035919050565b6000806040838503121561073b57600080fd5b8235915060208301356001600160a01b038116811461075957600080fd5b809150509250929050565b60005b8381101561077f578181015183820152602001610767565b50506000910152565b7f416363657373436f6e74726f6c3a206163636f756e74200000000000000000008152600083516107c0816017850160208801610764565b7001034b99036b4b9b9b4b733903937b6329607d1b60179184019182015283516107f1816028840160208801610764565b01602801949350505050565b602081526000825180602084015261081c816040850160208701610764565b601f01601f19169190910160400192915050565b634e487b7160e01b600052601160045260246000fd5b80820281158282048414176102e0576102e0610830565b808201808211156102e0576102e0610830565b634e487b7160e01b600052604160045260246000fd5b634e487b7160e01b600052603260045260246000fd5b6000816108ab576108ab610830565b50600019019056fea264697066735822122092aa264924c5a12f71de0341a9647d229f2cf2931642eedda1a8990d7e961f7764736f6c63430008180033",
  "linkReferences": {},
  "deployedLinkReferences": {}
}